{
	"data": {
		"bytecode": {
			"linkReferences": {
				"remix_tests.sol": {
					"Assert": [
						{
							"length": 20,
							"start": 121
						},
						{
							"length": 20,
							"start": 397
						}
					]
				}
			},
			"object": "608060405234801561001057600080fd5b506146ba806100206000396000f3fe60806040523480156200001157600080fd5b50600436106200003a5760003560e01c8063218e00ff146200003f5780637fea0d4b146200004b575b600080fd5b6200004962000057565b005b6200005562000281565b005b73__$acbfb1c35000d78352310b16a054a6b106$__63e8c2cb1660008054906101000a900473ffffffffffffffffffffffffffffffffffffffff1673ffffffffffffffffffffffffffffffffffffffff166306fdde036040518163ffffffff1660e01b8152600401600060405180830381865afa158015620000dd573d6000803e3d6000fd5b505050506040513d6000823e3d601f19601f820116820180604052508101906200010891906200048f565b6040518263ffffffff1660e01b8152600401620001269190620005dd565b602060405180830381865af415801562000144573d6000803e3d6000fd5b505050506040513d601f19601f820116820180604052508101906200016a919062000668565b5073__$acbfb1c35000d78352310b16a054a6b106$__63e8c2cb1660008054906101000a900473ffffffffffffffffffffffffffffffffffffffff1673ffffffffffffffffffffffffffffffffffffffff166395d89b416040518163ffffffff1660e01b8152600401600060405180830381865afa158015620001f1573d6000803e3d6000fd5b505050506040513d6000823e3d601f19601f820116820180604052508101906200021c91906200048f565b6040518263ffffffff1660e01b81526004016200023a91906200073a565b602060405180830381865af415801562000258573d6000803e3d6000fd5b505050506040513d601f19601f820116820180604052508101906200027e919062000668565b50565b6040516200028f90620002ee565b604051809103906000f080158015620002ac573d6000803e3d6000fd5b506000806101000a81548173ffffffffffffffffffffffffffffffffffffffff021916908373ffffffffffffffffffffffffffffffffffffffff160217905550565b613efc806200078983390190565b6000604051905090565b600080fd5b600080fd5b600080fd5b600080fd5b6000601f19601f8301169050919050565b7f4e487b7100000000000000000000000000000000000000000000000000000000600052604160045260246000fd5b62000365826200031a565b810181811067ffffffffffffffff821117156200038757620003866200032b565b5b80604052505050565b60006200039c620002fc565b9050620003aa82826200035a565b919050565b600067ffffffffffffffff821115620003cd57620003cc6200032b565b5b620003d8826200031a565b9050602081019050919050565b60005b8381101562000405578082015181840152602081019050620003e8565b60008484015250505050565b6000620004286200042284620003af565b62000390565b90508281526020810184848401111562000447576200044662000315565b5b62000454848285620003e5565b509392505050565b600082601f83011262000474576200047362000310565b5b81516200048684826020860162000411565b91505092915050565b600060208284031215620004a857620004a762000306565b5b600082015167ffffffffffffffff811115620004c957620004c86200030b565b5b620004d7848285016200045c565b91505092915050565b600081519050919050565b600082825260208201905092915050565b60006200050982620004e0565b620005158185620004eb565b935062000527818560208601620003e5565b62000532816200031a565b840191505092915050565b7f6172740000000000000000000000000000000000000000000000000000000000600082015250565b600062000575600383620004eb565b915062000582826200053d565b602082019050919050565b7f746f6b656e206e616d6520646964206e6f74206d617463680000000000000000600082015250565b6000620005c5601883620004eb565b9150620005d2826200058d565b602082019050919050565b60006060820190508181036000830152620005f98184620004fc565b905081810360208301526200060e8162000566565b905081810360408301526200062381620005b6565b905092915050565b60008115159050919050565b62000642816200062b565b81146200064e57600080fd5b50565b600081519050620006628162000637565b92915050565b60006020828403121562000681576200068062000306565b5b6000620006918482850162000651565b91505092915050565b7f4152540000000000000000000000000000000000000000000000000000000000600082015250565b6000620006d2600383620004eb565b9150620006df826200069a565b602082019050919050565b7f746f6b656e2073796d626f6c20646964206e6f74206d61746368000000000000600082015250565b600062000722601a83620004eb565b91506200072f82620006ea565b602082019050919050565b60006060820190508181036000830152620007568184620004fc565b905081810360208301526200076b81620006c3565b90508181036040830152620007808162000713565b90509291505056fe6080604052674563918244f400006008553480156200001d57600080fd5b506040518060400160405280600381526020017f61727400000000000000000000000000000000000000000000000000000000008152506040518060400160405280600381526020017f415254000000000000000000000000000000000000000000000000000000000081525081600090816200009b91906200041e565b508060019081620000ad91906200041e565b505050620000d0620000c4620000d660201b60201c565b620000de60201b60201c565b62000505565b600033905090565b6000600660009054906101000a900473ffffffffffffffffffffffffffffffffffffffff16905081600660006101000a81548173ffffffffffffffffffffffffffffffffffffffff021916908373ffffffffffffffffffffffffffffffffffffffff1602179055508173ffffffffffffffffffffffffffffffffffffffff168173ffffffffffffffffffffffffffffffffffffffff167f8be0079c531659141344cd1fd0a4f28419497f9722a3daafe3b4186f6b6457e060405160405180910390a35050565b600081519050919050565b7f4e487b7100000000000000000000000000000000000000000000000000000000600052604160045260246000fd5b7f4e487b7100000000000000000000000000000000000000000000000000000000600052602260045260246000fd5b600060028204905060018216806200022657607f821691505b6020821081036200023c576200023b620001de565b5b50919050565b60008190508160005260206000209050919050565b60006020601f8301049050919050565b600082821b905092915050565b600060088302620002a67fffffffffffffffffffffffffffffffffffffffffffffffffffffffffffffffff8262000267565b620002b2868362000267565b95508019841693508086168417925050509392505050565b6000819050919050565b6000819050919050565b6000620002ff620002f9620002f384620002ca565b620002d4565b620002ca565b9050919050565b6000819050919050565b6200031b83620002de565b620003336200032a8262000306565b84845462000274565b825550505050565b600090565b6200034a6200033b565b6200035781848462000310565b505050565b5b818110156200037f576200037360008262000340565b6001810190506200035d565b5050565b601f821115620003ce57620003988162000242565b620003a38462000257565b81016020851015620003b3578190505b620003cb620003c28562000257565b8301826200035c565b50505b505050565b600082821c905092915050565b6000620003f360001984600802620003d3565b1980831691505092915050565b60006200040e8383620003e0565b9150826002028217905092915050565b6200042982620001a4565b67ffffffffffffffff811115620004455762000444620001af565b5b6200045182546200020d565b6200045e82828562000383565b600060209050601f83116001811462000496576000841562000481578287015190505b6200048d858262000400565b865550620004fd565b601f198416620004a68662000242565b60005b82811015620004d057848901518255600182019150602085019450602081019050620004a9565b86831015620004f05784890151620004ec601f891682620003e0565b8355505b6001600288020188555050505b505050505050565b6139e780620005156000396000f3fe6080604052600436106101665760003560e01c80636352211e116100d15780639b6c354e1161008a578063c87b56dd11610064578063c87b56dd14610511578063ddca3f431461054e578063e985e9c514610579578063f2fde38b146105b657610166565b80639b6c354e14610493578063a22cb465146104bf578063b88d4fde146104e857610166565b80636352211e1461038357806370a08231146103c0578063715018a6146103fd5780638da5cb5b146104145780639012c4a81461043f57806395d89b411461046857610166565b8063125c4b2b11610123578063125c4b2b146102a357806323b872dd146102e05780632f2670c314610309578063382d0412146103255780633ccfd60b1461035057806342842e0e1461035a57610166565b806301ffc9a71461016b5780630667fac3146101a857806306fdde03146101e9578063081812fc14610214578063095ea7b3146102515780630ce90ec21461027a575b600080fd5b34801561017757600080fd5b50610192600480360381019061018d919061242d565b6105df565b60405161019f9190612475565b60405180910390f35b3480156101b457600080fd5b506101cf60048036038101906101ca91906124c6565b6106c1565b6040516101e09594939291906125ae565b60405180910390f35b3480156101f557600080fd5b506101fe6107a9565b60405161020b9190612608565b60405180910390f35b34801561022057600080fd5b5061023b600480360381019061023691906124c6565b61083b565b604051610248919061266b565b60405180910390f35b34801561025d57600080fd5b50610278600480360381019061027391906126b2565b610881565b005b34801561028657600080fd5b506102a1600480360381019061029c91906124c6565b610998565b005b3480156102af57600080fd5b506102ca60048036038101906102c591906126f2565b610a3c565b6040516102d791906128bf565b60405180910390f35b3480156102ec57600080fd5b50610307600480360381019061030291906128e1565b610c42565b005b610323600480360381019061031e9190612a69565b610ca2565b005b34801561033157600080fd5b5061033a610cbd565b60405161034791906128bf565b60405180910390f35b610358610dfc565b005b34801561036657600080fd5b50610381600480360381019061037c91906128e1565b610e5a565b005b34801561038f57600080fd5b506103aa60048036038101906103a591906124c6565b610e7a565b6040516103b7919061266b565b60405180910390f35b3480156103cc57600080fd5b506103e760048036038101906103e291906126f2565b610f00565b6040516103f49190612ab2565b60405180910390f35b34801561040957600080fd5b50610412610fb7565b005b34801561042057600080fd5b50610429610fcb565b604051610436919061266b565b60405180910390f35b34801561044b57600080fd5b50610466600480360381019061046191906124c6565b610ff5565b005b34801561047457600080fd5b5061047d611007565b60405161048a9190612608565b60405180910390f35b34801561049f57600080fd5b506104a8611099565b6040516104b6929190612acd565b60405180910390f35b3480156104cb57600080fd5b506104e660048036038101906104e19190612b22565b6110c5565b005b3480156104f457600080fd5b5061050f600480360381019061050a9190612c03565b6110db565b005b34801561051d57600080fd5b50610538600480360381019061053391906124c6565b61113d565b6040516105459190612608565b60405180910390f35b34801561055a57600080fd5b506105636111a5565b6040516105709190612ab2565b60405180910390f35b34801561058557600080fd5b506105a0600480360381019061059b9190612c86565b6111ab565b6040516105ad9190612475565b60405180910390f35b3480156105c257600080fd5b506105dd60048036038101906105d891906126f2565b61123f565b005b60007f80ac58cd000000000000000000000000000000000000000000000000000000007bffffffffffffffffffffffffffffffffffffffffffffffffffffffff1916827bffffffffffffffffffffffffffffffffffffffffffffffffffffffff191614806106aa57507f5b5e139f000000000000000000000000000000000000000000000000000000007bffffffffffffffffffffffffffffffffffffffffffffffffffffffff1916827bffffffffffffffffffffffffffffffffffffffffffffffffffffffff1916145b806106ba57506106b9826112c2565b5b9050919050565b600981815481106106d157600080fd5b90600052602060002090600402016000915090508060000180546106f490612cf5565b80601f016020809104026020016040519081016040528092919081815260200182805461072090612cf5565b801561076d5780601f106107425761010080835404028352916020019161076d565b820191906000526020600020905b81548152906001019060200180831161075057829003601f168201915b5050505050908060010154908060020154908060030160009054906101000a900460ff16908060030160019054906101000a900460ff16905085565b6060600080546107b890612cf5565b80601f01602080910402602001604051908101604052809291908181526020018280546107e490612cf5565b80156108315780601f1061080657610100808354040283529160200191610831565b820191906000526020600020905b81548152906001019060200180831161081457829003601f168201915b5050505050905090565b60006108468261132c565b6004600083815260200190815260200160002060009054906101000a900473ffffffffffffffffffffffffffffffffffffffff169050919050565b600061088c82610e7a565b90508073ffffffffffffffffffffffffffffffffffffffff168373ffffffffffffffffffffffffffffffffffffffff16036108fc576040517f08c379a00000000000000000000000000000000000000000000000000000000081526004016108f390612d98565b60405180910390fd5b8073ffffffffffffffffffffffffffffffffffffffff1661091b611377565b73ffffffffffffffffffffffffffffffffffffffff16148061094a575061094981610944611377565b6111ab565b5b610989576040517f08c379a000000000000000000000000000000000000000000000000000000000815260040161098090612e2a565b60405180910390fd5b610993838361137f565b505050565b3373ffffffffffffffffffffffffffffffffffffffff166109b882610e7a565b73ffffffffffffffffffffffffffffffffffffffff16146109d857600080fd5b6000600982815481106109ee576109ed612e4a565b5b9060005260206000209060040201905080600301600081819054906101000a900460ff1680929190610a1f90612ea8565b91906101000a81548160ff021916908360ff160217905550505050565b60606000610a4983610f00565b67ffffffffffffffff811115610a6257610a6161293e565b5b604051908082528060200260200182016040528015610a9b57816020015b610a8861238c565b815260200190600190039081610a805790505b5090506000805b600980549050811015610c37578473ffffffffffffffffffffffffffffffffffffffff16610acf82610e7a565b73ffffffffffffffffffffffffffffffffffffffff1603610c245760098181548110610afe57610afd612e4a565b5b90600052602060002090600402016040518060a0016040529081600082018054610b2790612cf5565b80601f0160208091040260200160405190810160405280929190818152602001828054610b5390612cf5565b8015610ba05780601f10610b7557610100808354040283529160200191610ba0565b820191906000526020600020905b815481529060010190602001808311610b8357829003601f168201915b5050505050815260200160018201548152602001600282015481526020016003820160009054906101000a900460ff1660ff1660ff1681526020016003820160019054906101000a900460ff1660ff1660ff1681525050838381518110610c0a57610c09612e4a565b5b60200260200101819052508180610c2090612ed1565b9250505b8080610c2f90612ed1565b915050610aa2565b508192505050919050565b610c53610c4d611377565b82611438565b610c92576040517f08c379a0000000000000000000000000000000000000000000000000000000008152600401610c8990612f8b565b60405180910390fd5b610c9d8383836114cd565b505050565b600854341015610cb157600080fd5b610cba816117c6565b50565b60606009805480602002602001604051908101604052809291908181526020016000905b82821015610df357838290600052602060002090600402016040518060a0016040529081600082018054610d1490612cf5565b80601f0160208091040260200160405190810160405280929190818152602001828054610d4090612cf5565b8015610d8d5780601f10610d6257610100808354040283529160200191610d8d565b820191906000526020600020905b815481529060010190602001808311610d7057829003601f168201915b5050505050815260200160018201548152602001600282015481526020016003820160009054906101000a900460ff1660ff1660ff1681526020016003820160019054906101000a900460ff1660ff1660ff168152505081526020019060010190610ce1565b50505050905090565b610e04611933565b6000610e0e610fcb565b90508073ffffffffffffffffffffffffffffffffffffffff166108fc479081150290604051600060405180830381858888f19350505050158015610e56573d6000803e3d6000fd5b5050565b610e75838383604051806020016040528060008152506110db565b505050565b600080610e86836119b1565b9050600073ffffffffffffffffffffffffffffffffffffffff168173ffffffffffffffffffffffffffffffffffffffff1603610ef7576040517f08c379a0000000000000000000000000000000000000000000000000000000008152600401610eee90612ff7565b60405180910390fd5b80915050919050565b60008073ffffffffffffffffffffffffffffffffffffffff168273ffffffffffffffffffffffffffffffffffffffff1603610f70576040517f08c379a0000000000000000000000000000000000000000000000000000000008152600401610f6790613089565b60405180910390fd5b600360008373ffffffffffffffffffffffffffffffffffffffff1673ffffffffffffffffffffffffffffffffffffffff168152602001908152602001600020549050919050565b610fbf611933565b610fc960006119ee565b565b6000600660009054906101000a900473ffffffffffffffffffffffffffffffffffffffff16905090565b610ffd611933565b8060088190555050565b60606001805461101690612cf5565b80601f016020809104026020016040519081016040528092919081815260200182805461104290612cf5565b801561108f5780601f106110645761010080835404028352916020019161108f565b820191906000526020600020905b81548152906001019060200180831161107257829003601f168201915b5050505050905090565b60008060003090506000670de0b6b3a7640000476110b791906130d8565b905081819350935050509091565b6110d76110d0611377565b8383611ab4565b5050565b6110ec6110e6611377565b83611438565b61112b576040517f08c379a000000000000000000000000000000000000000000000000000000000815260040161112290612f8b565b60405180910390fd5b61113784848484611c20565b50505050565b60606111488261132c565b6000611152611c7c565b90506000815111611172576040518060200160405280600081525061119d565b8061117c84611c93565b60405160200161118d929190613145565b6040516020818303038152906040525b915050919050565b60085481565b6000600560008473ffffffffffffffffffffffffffffffffffffffff1673ffffffffffffffffffffffffffffffffffffffff16815260200190815260200160002060008373ffffffffffffffffffffffffffffffffffffffff1673ffffffffffffffffffffffffffffffffffffffff16815260200190815260200160002060009054906101000a900460ff16905092915050565b611247611933565b600073ffffffffffffffffffffffffffffffffffffffff168173ffffffffffffffffffffffffffffffffffffffff16036112b6576040517f08c379a00000000000000000000000000000000000000000000000000000000081526004016112ad906131db565b60405180910390fd5b6112bf816119ee565b50565b60007f01ffc9a7000000000000000000000000000000000000000000000000000000007bffffffffffffffffffffffffffffffffffffffffffffffffffffffff1916827bffffffffffffffffffffffffffffffffffffffffffffffffffffffff1916149050919050565b61133581611d61565b611374576040517f08c379a000000000000000000000000000000000000000000000000000000000815260040161136b90612ff7565b60405180910390fd5b50565b600033905090565b816004600083815260200190815260200160002060006101000a81548173ffffffffffffffffffffffffffffffffffffffff021916908373ffffffffffffffffffffffffffffffffffffffff160217905550808273ffffffffffffffffffffffffffffffffffffffff166113f283610e7a565b73ffffffffffffffffffffffffffffffffffffffff167f8c5be1e5ebec7d5bd14f71427d1e84f3dd0314c0f7b2291e5b200ac8c7c3b92560405160405180910390a45050565b60008061144483610e7a565b90508073ffffffffffffffffffffffffffffffffffffffff168473ffffffffffffffffffffffffffffffffffffffff161480611486575061148581856111ab565b5b806114c457508373ffffffffffffffffffffffffffffffffffffffff166114ac8461083b565b73ffffffffffffffffffffffffffffffffffffffff16145b91505092915050565b8273ffffffffffffffffffffffffffffffffffffffff166114ed82610e7a565b73ffffffffffffffffffffffffffffffffffffffff1614611543576040517f08c379a000000000000000000000000000000000000000000000000000000000815260040161153a9061326d565b60405180910390fd5b600073ffffffffffffffffffffffffffffffffffffffff168273ffffffffffffffffffffffffffffffffffffffff16036115b2576040517f08c379a00000000000000000000000000000000000000000000000000000000081526004016115a9906132ff565b60405180910390fd5b6115bf8383836001611da2565b8273ffffffffffffffffffffffffffffffffffffffff166115df82610e7a565b73ffffffffffffffffffffffffffffffffffffffff1614611635576040517f08c379a000000000000000000000000000000000000000000000000000000000815260040161162c9061326d565b60405180910390fd5b6004600082815260200190815260200160002060006101000a81549073ffffffffffffffffffffffffffffffffffffffff02191690556001600360008573ffffffffffffffffffffffffffffffffffffffff1673ffffffffffffffffffffffffffffffffffffffff168152602001908152602001600020600082825403925050819055506001600360008473ffffffffffffffffffffffffffffffffffffffff1673ffffffffffffffffffffffffffffffffffffffff16815260200190815260200160002060008282540192505081905550816002600083815260200190815260200160002060006101000a81548173ffffffffffffffffffffffffffffffffffffffff021916908373ffffffffffffffffffffffffffffffffffffffff160217905550808273ffffffffffffffffffffffffffffffffffffffff168473ffffffffffffffffffffffffffffffffffffffff167fddf252ad1be2c89b69c2b068fc378daa952ba7f163c4a11628f55a4df523b3ef60405160405180910390a46117c18383836001611da8565b505050565b60006117d36103e8611dae565b905060006117e7662386f26fc10000611dae565b905060006040518060a001604052808581526020016007548152602001838152602001600160ff1681526020018460ff1681525090506009819080600181540180825580915050600190039060005260206000209060040201600090919091909150600082015181600001908161185e91906134cb565b50602082015181600101556040820151816002015560608201518160030160006101000a81548160ff021916908360ff16021790555060808201518160030160016101000a81548160ff021916908360ff16021790555050506118c333600754611df9565b3373ffffffffffffffffffffffffffffffffffffffff167fe6c61928f551ceab96529f7f8e907a65bad987be27d94f9f8b77238bd4335b066007548460405161190d92919061359d565b60405180910390a26007600081548092919061192890612ed1565b919050555050505050565b61193b611377565b73ffffffffffffffffffffffffffffffffffffffff16611959610fcb565b73ffffffffffffffffffffffffffffffffffffffff16146119af576040517f08c379a00000000000000000000000000000000000000000000000000000000081526004016119a690613612565b60405180910390fd5b565b60006002600083815260200190815260200160002060009054906101000a900473ffffffffffffffffffffffffffffffffffffffff169050919050565b6000600660009054906101000a900473ffffffffffffffffffffffffffffffffffffffff16905081600660006101000a81548173ffffffffffffffffffffffffffffffffffffffff021916908373ffffffffffffffffffffffffffffffffffffffff1602179055508173ffffffffffffffffffffffffffffffffffffffff168173ffffffffffffffffffffffffffffffffffffffff167f8be0079c531659141344cd1fd0a4f28419497f9722a3daafe3b4186f6b6457e060405160405180910390a35050565b8173ffffffffffffffffffffffffffffffffffffffff168373ffffffffffffffffffffffffffffffffffffffff1603611b22576040517f08c379a0000000000000000000000000000000000000000000000000000000008152600401611b199061367e565b60405180910390fd5b80600560008573ffffffffffffffffffffffffffffffffffffffff1673ffffffffffffffffffffffffffffffffffffffff16815260200190815260200160002060008473ffffffffffffffffffffffffffffffffffffffff1673ffffffffffffffffffffffffffffffffffffffff16815260200190815260200160002060006101000a81548160ff0219169083151502179055508173ffffffffffffffffffffffffffffffffffffffff168373ffffffffffffffffffffffffffffffffffffffff167f17307eab39ab6107e8899845ad3d59bd9653f200f220920489ca2b5937696c3183604051611c139190612475565b60405180910390a3505050565b611c2b8484846114cd565b611c3784848484611e17565b611c76576040517f08c379a0000000000000000000000000000000000000000000000000000000008152600401611c6d90613710565b60405180910390fd5b50505050565b606060405180602001604052806000815250905090565b606060006001611ca284611f9e565b01905060008167ffffffffffffffff811115611cc157611cc061293e565b5b6040519080825280601f01601f191660200182016040528015611cf35781602001600182028036833780820191505090505b509050600082602001820190505b600115611d56578080600190039150507f3031323334353637383961626364656600000000000000000000000000000000600a86061a8153600a8581611d4a57611d496130a9565b5b04945060008503611d01575b819350505050919050565b60008073ffffffffffffffffffffffffffffffffffffffff16611d83836119b1565b73ffffffffffffffffffffffffffffffffffffffff1614159050919050565b50505050565b50505050565b6000804233604051602001611dc4929190613799565b60405160208183030381529060405280519060200120905060008160001c90508381611df091906137c5565b92505050919050565b611e138282604051806020016040528060008152506120f1565b5050565b6000611e388473ffffffffffffffffffffffffffffffffffffffff1661214c565b15611f91578373ffffffffffffffffffffffffffffffffffffffff1663150b7a02611e61611377565b8786866040518563ffffffff1660e01b8152600401611e83949392919061384b565b6020604051808303816000875af1925050508015611ebf57506040513d601f19601f82011682018060405250810190611ebc91906138ac565b60015b611f41573d8060008114611eef576040519150601f19603f3d011682016040523d82523d6000602084013e611ef4565b606091505b506000815103611f39576040517f08c379a0000000000000000000000000000000000000000000000000000000008152600401611f3090613710565b60405180910390fd5b805181602001fd5b63150b7a0260e01b7bffffffffffffffffffffffffffffffffffffffffffffffffffffffff1916817bffffffffffffffffffffffffffffffffffffffffffffffffffffffff191614915050611f96565b600190505b949350505050565b600080600090507a184f03e93ff9f4daa797ed6e38ed64bf6a1f0100000000000000008310611ffc577a184f03e93ff9f4daa797ed6e38ed64bf6a1f0100000000000000008381611ff257611ff16130a9565b5b0492506040810190505b6d04ee2d6d415b85acef81000000008310612039576d04ee2d6d415b85acef8100000000838161202f5761202e6130a9565b5b0492506020810190505b662386f26fc10000831061206857662386f26fc10000838161205e5761205d6130a9565b5b0492506010810190505b6305f5e1008310612091576305f5e1008381612087576120866130a9565b5b0492506008810190505b61271083106120b65761271083816120ac576120ab6130a9565b5b0492506004810190505b606483106120d957606483816120cf576120ce6130a9565b5b0492506002810190505b600a83106120e8576001810190505b80915050919050565b6120fb838361216f565b6121086000848484611e17565b612147576040517f08c379a000000000000000000000000000000000000000000000000000000000815260040161213e90613710565b60405180910390fd5b505050565b6000808273ffffffffffffffffffffffffffffffffffffffff163b119050919050565b600073ffffffffffffffffffffffffffffffffffffffff168273ffffffffffffffffffffffffffffffffffffffff16036121de576040517f08c379a00000000000000000000000000000000000000000000000000000000081526004016121d590613925565b60405180910390fd5b6121e781611d61565b15612227576040517f08c379a000000000000000000000000000000000000000000000000000000000815260040161221e90613991565b60405180910390fd5b612235600083836001611da2565b61223e81611d61565b1561227e576040517f08c379a000000000000000000000000000000000000000000000000000000000815260040161227590613991565b60405180910390fd5b6001600360008473ffffffffffffffffffffffffffffffffffffffff1673ffffffffffffffffffffffffffffffffffffffff16815260200190815260200160002060008282540192505081905550816002600083815260200190815260200160002060006101000a81548173ffffffffffffffffffffffffffffffffffffffff021916908373ffffffffffffffffffffffffffffffffffffffff160217905550808273ffffffffffffffffffffffffffffffffffffffff16600073ffffffffffffffffffffffffffffffffffffffff167fddf252ad1be2c89b69c2b068fc378daa952ba7f163c4a11628f55a4df523b3ef60405160405180910390a4612388600083836001611da8565b5050565b6040518060a00160405280606081526020016000815260200160008152602001600060ff168152602001600060ff1681525090565b6000604051905090565b600080fd5b600080fd5b60007fffffffff0000000000000000000000000000000000000000000000000000000082169050919050565b61240a816123d5565b811461241557600080fd5b50565b60008135905061242781612401565b92915050565b600060208284031215612443576124426123cb565b5b600061245184828501612418565b91505092915050565b60008115159050919050565b61246f8161245a565b82525050565b600060208201905061248a6000830184612466565b92915050565b6000819050919050565b6124a381612490565b81146124ae57600080fd5b50565b6000813590506124c08161249a565b92915050565b6000602082840312156124dc576124db6123cb565b5b60006124ea848285016124b1565b91505092915050565b600081519050919050565b600082825260208201905092915050565b60005b8381101561252d578082015181840152602081019050612512565b60008484015250505050565b6000601f19601f8301169050919050565b6000612555826124f3565b61255f81856124fe565b935061256f81856020860161250f565b61257881612539565b840191505092915050565b61258c81612490565b82525050565b600060ff82169050919050565b6125a881612592565b82525050565b600060a08201905081810360008301526125c8818861254a565b90506125d76020830187612583565b6125e46040830186612583565b6125f1606083018561259f565b6125fe608083018461259f565b9695505050505050565b60006020820190508181036000830152612622818461254a565b905092915050565b600073ffffffffffffffffffffffffffffffffffffffff82169050919050565b60006126558261262a565b9050919050565b6126658161264a565b82525050565b6000602082019050612680600083018461265c565b92915050565b61268f8161264a565b811461269a57600080fd5b50565b6000813590506126ac81612686565b92915050565b600080604083850312156126c9576126c86123cb565b5b60006126d78582860161269d565b92505060206126e8858286016124b1565b9150509250929050565b600060208284031215612708576127076123cb565b5b60006127168482850161269d565b91505092915050565b600081519050919050565b600082825260208201905092915050565b6000819050602082019050919050565b600082825260208201905092915050565b6000612767826124f3565b612771818561274b565b935061278181856020860161250f565b61278a81612539565b840191505092915050565b61279e81612490565b82525050565b6127ad81612592565b82525050565b600060a08301600083015184820360008601526127d0828261275c565b91505060208301516127e56020860182612795565b5060408301516127f86040860182612795565b50606083015161280b60608601826127a4565b50608083015161281e60808601826127a4565b508091505092915050565b600061283583836127b3565b905092915050565b6000602082019050919050565b60006128558261271f565b61285f818561272a565b9350836020820285016128718561273b565b8060005b858110156128ad578484038952815161288e8582612829565b94506128998361283d565b925060208a01995050600181019050612875565b50829750879550505050505092915050565b600060208201905081810360008301526128d9818461284a565b905092915050565b6000806000606084860312156128fa576128f96123cb565b5b60006129088682870161269d565b93505060206129198682870161269d565b925050604061292a868287016124b1565b9150509250925092565b600080fd5b600080fd5b7f4e487b7100000000000000000000000000000000000000000000000000000000600052604160045260246000fd5b61297682612539565b810181811067ffffffffffffffff821117156129955761299461293e565b5b80604052505050565b60006129a86123c1565b90506129b4828261296d565b919050565b600067ffffffffffffffff8211156129d4576129d361293e565b5b6129dd82612539565b9050602081019050919050565b82818337600083830152505050565b6000612a0c612a07846129b9565b61299e565b905082815260208101848484011115612a2857612a27612939565b5b612a338482856129ea565b509392505050565b600082601f830112612a5057612a4f612934565b5b8135612a608482602086016129f9565b91505092915050565b600060208284031215612a7f57612a7e6123cb565b5b600082013567ffffffffffffffff811115612a9d57612a9c6123d0565b5b612aa984828501612a3b565b91505092915050565b6000602082019050612ac76000830184612583565b92915050565b6000604082019050612ae2600083018561265c565b612aef6020830184612583565b9392505050565b612aff8161245a565b8114612b0a57600080fd5b50565b600081359050612b1c81612af6565b92915050565b60008060408385031215612b3957612b386123cb565b5b6000612b478582860161269d565b9250506020612b5885828601612b0d565b9150509250929050565b600067ffffffffffffffff821115612b7d57612b7c61293e565b5b612b8682612539565b9050602081019050919050565b6000612ba6612ba184612b62565b61299e565b905082815260208101848484011115612bc257612bc1612939565b5b612bcd8482856129ea565b509392505050565b600082601f830112612bea57612be9612934565b5b8135612bfa848260208601612b93565b91505092915050565b60008060008060808587031215612c1d57612c1c6123cb565b5b6000612c2b8782880161269d565b9450506020612c3c8782880161269d565b9350506040612c4d878288016124b1565b925050606085013567ffffffffffffffff811115612c6e57612c6d6123d0565b5b612c7a87828801612bd5565b91505092959194509250565b60008060408385031215612c9d57612c9c6123cb565b5b6000612cab8582860161269d565b9250506020612cbc8582860161269d565b9150509250929050565b7f4e487b7100000000000000000000000000000000000000000000000000000000600052602260045260246000fd5b60006002820490506001821680612d0d57607f821691505b602082108103612d2057612d1f612cc6565b5b50919050565b7f4552433732313a20617070726f76616c20746f2063757272656e74206f776e6560008201527f7200000000000000000000000000000000000000000000000000000000000000602082015250565b6000612d826021836124fe565b9150612d8d82612d26565b604082019050919050565b60006020820190508181036000830152612db181612d75565b9050919050565b7f4552433732313a20617070726f76652063616c6c6572206973206e6f7420746f60008201527f6b656e206f776e6572206f7220617070726f76656420666f7220616c6c000000602082015250565b6000612e14603d836124fe565b9150612e1f82612db8565b604082019050919050565b60006020820190508181036000830152612e4381612e07565b9050919050565b7f4e487b7100000000000000000000000000000000000000000000000000000000600052603260045260246000fd5b7f4e487b7100000000000000000000000000000000000000000000000000000000600052601160045260246000fd5b6000612eb382612592565b915060ff8203612ec657612ec5612e79565b5b600182019050919050565b6000612edc82612490565b91507fffffffffffffffffffffffffffffffffffffffffffffffffffffffffffffffff8203612f0e57612f0d612e79565b5b600182019050919050565b7f4552433732313a2063616c6c6572206973206e6f7420746f6b656e206f776e6560008201527f72206f7220617070726f76656400000000000000000000000000000000000000602082015250565b6000612f75602d836124fe565b9150612f8082612f19565b604082019050919050565b60006020820190508181036000830152612fa481612f68565b9050919050565b7f4552433732313a20696e76616c696420746f6b656e2049440000000000000000600082015250565b6000612fe16018836124fe565b9150612fec82612fab565b602082019050919050565b6000602082019050818103600083015261301081612fd4565b9050919050565b7f4552433732313a2061646472657373207a65726f206973206e6f74206120766160008201527f6c6964206f776e65720000000000000000000000000000000000000000000000602082015250565b60006130736029836124fe565b915061307e82613017565b604082019050919050565b600060208201905081810360008301526130a281613066565b9050919050565b7f4e487b7100000000000000000000000000000000000000000000000000000000600052601260045260246000fd5b60006130e382612490565b91506130ee83612490565b9250826130fe576130fd6130a9565b5b828204905092915050565b600081905092915050565b600061311f826124f3565b6131298185613109565b935061313981856020860161250f565b80840191505092915050565b60006131518285613114565b915061315d8284613114565b91508190509392505050565b7f4f776e61626c653a206e6577206f776e657220697320746865207a65726f206160008201527f6464726573730000000000000000000000000000000000000000000000000000602082015250565b60006131c56026836124fe565b91506131d082613169565b604082019050919050565b600060208201905081810360008301526131f4816131b8565b9050919050565b7f4552433732313a207472616e736665722066726f6d20696e636f72726563742060008201527f6f776e6572000000000000000000000000000000000000000000000000000000602082015250565b60006132576025836124fe565b9150613262826131fb565b604082019050919050565b600060208201905081810360008301526132868161324a565b9050919050565b7f4552433732313a207472616e7366657220746f20746865207a65726f2061646460008201527f7265737300000000000000000000000000000000000000000000000000000000602082015250565b60006132e96024836124fe565b91506132f48261328d565b604082019050919050565b60006020820190508181036000830152613318816132dc565b9050919050565b60008190508160005260206000209050919050565b60006020601f8301049050919050565b600082821b905092915050565b6000600883026133817fffffffffffffffffffffffffffffffffffffffffffffffffffffffffffffffff82613344565b61338b8683613344565b95508019841693508086168417925050509392505050565b6000819050919050565b60006133c86133c36133be84612490565b6133a3565b612490565b9050919050565b6000819050919050565b6133e2836133ad565b6133f66133ee826133cf565b848454613351565b825550505050565b600090565b61340b6133fe565b6134168184846133d9565b505050565b5b8181101561343a5761342f600082613403565b60018101905061341c565b5050565b601f82111561347f576134508161331f565b61345984613334565b81016020851015613468578190505b61347c61347485613334565b83018261341b565b50505b505050565b600082821c905092915050565b60006134a260001984600802613484565b1980831691505092915050565b60006134bb8383613491565b9150826002028217905092915050565b6134d4826124f3565b67ffffffffffffffff8111156134ed576134ec61293e565b5b6134f78254612cf5565b61350282828561343e565b600060209050601f8311600181146135355760008415613523578287015190505b61352d85826134af565b865550613595565b601f1984166135438661331f565b60005b8281101561356b57848901518255600182019150602085019450602081019050613546565b868310156135885784890151613584601f891682613491565b8355505b6001600288020188555050505b505050505050565b60006040820190506135b26000830185612583565b6135bf6020830184612583565b9392505050565b7f4f776e61626c653a2063616c6c6572206973206e6f7420746865206f776e6572600082015250565b60006135fc6020836124fe565b9150613607826135c6565b602082019050919050565b6000602082019050818103600083015261362b816135ef565b9050919050565b7f4552433732313a20617070726f766520746f2063616c6c657200000000000000600082015250565b60006136686019836124fe565b915061367382613632565b602082019050919050565b600060208201905081810360008301526136978161365b565b9050919050565b7f4552433732313a207472616e7366657220746f206e6f6e20455243373231526560008201527f63656976657220696d706c656d656e7465720000000000000000000000000000602082015250565b60006136fa6032836124fe565b91506137058261369e565b604082019050919050565b60006020820190508181036000830152613729816136ed565b9050919050565b6000819050919050565b61374b61374682612490565b613730565b82525050565b60008160601b9050919050565b600061376982613751565b9050919050565b600061377b8261375e565b9050919050565b61379361378e8261264a565b613770565b82525050565b60006137a5828561373a565b6020820191506137b58284613782565b6014820191508190509392505050565b60006137d082612490565b91506137db83612490565b9250826137eb576137ea6130a9565b5b828206905092915050565b600081519050919050565b600082825260208201905092915050565b600061381d826137f6565b6138278185613801565b935061383781856020860161250f565b61384081612539565b840191505092915050565b6000608082019050613860600083018761265c565b61386d602083018661265c565b61387a6040830185612583565b818103606083015261388c8184613812565b905095945050505050565b6000815190506138a681612401565b92915050565b6000602082840312156138c2576138c16123cb565b5b60006138d084828501613897565b91505092915050565b7f4552433732313a206d696e7420746f20746865207a65726f2061646472657373600082015250565b600061390f6020836124fe565b915061391a826138d9565b602082019050919050565b6000602082019050818103600083015261393e81613902565b9050919050565b7f4552433732313a20746f6b656e20616c7265616479206d696e74656400000000600082015250565b600061397b601c836124fe565b915061398682613945565b602082019050919050565b600060208201905081810360008301526139aa8161396e565b905091905056fea26469706673582212204348d11a5138e69b2d043724b931f5c12eafd38335e32d7329132bc22c7b86c064736f6c63430008130033a2646970667358221220bc823ce6f0093dee06de55d69527e79c01e83dea720c23720c00612fa167e1cc64736f6c63430008130033",
			"opcodes": "PUSH1 0x80 PUSH1 0x40 MSTORE CALLVALUE DUP1 ISZERO PUSH2 0x10 JUMPI PUSH1 0x0 DUP1 REVERT JUMPDEST POP PUSH2 0x46BA DUP1 PUSH2 0x20 PUSH1 0x0 CODECOPY PUSH1 0x0 RETURN INVALID PUSH1 0x80 PUSH1 0x40 MSTORE CALLVALUE DUP1 ISZERO PUSH3 0x11 JUMPI PUSH1 0x0 DUP1 REVERT JUMPDEST POP PUSH1 0x4 CALLDATASIZE LT PUSH3 0x3A JUMPI PUSH1 0x0 CALLDATALOAD PUSH1 0xE0 SHR DUP1 PUSH4 0x218E00FF EQ PUSH3 0x3F JUMPI DUP1 PUSH4 0x7FEA0D4B EQ PUSH3 0x4B JUMPI JUMPDEST PUSH1 0x0 DUP1 REVERT JUMPDEST PUSH3 0x49 PUSH3 0x57 JUMP JUMPDEST STOP JUMPDEST PUSH3 0x55 PUSH3 0x281 JUMP JUMPDEST STOP JUMPDEST PUSH20 0x0 PUSH4 0xE8C2CB16 PUSH1 0x0 DUP1 SLOAD SWAP1 PUSH2 0x100 EXP SWAP1 DIV PUSH20 0xFFFFFFFFFFFFFFFFFFFFFFFFFFFFFFFFFFFFFFFF AND PUSH20 0xFFFFFFFFFFFFFFFFFFFFFFFFFFFFFFFFFFFFFFFF AND PUSH4 0x6FDDE03 PUSH1 0x40 MLOAD DUP2 PUSH4 0xFFFFFFFF AND PUSH1 0xE0 SHL DUP2 MSTORE PUSH1 0x4 ADD PUSH1 0x0 PUSH1 0x40 MLOAD DUP1 DUP4 SUB DUP2 DUP7 GAS STATICCALL ISZERO DUP1 ISZERO PUSH3 0xDD JUMPI RETURNDATASIZE PUSH1 0x0 DUP1 RETURNDATACOPY RETURNDATASIZE PUSH1 0x0 REVERT JUMPDEST POP POP POP POP PUSH1 0x40 MLOAD RETURNDATASIZE PUSH1 0x0 DUP3 RETURNDATACOPY RETURNDATASIZE PUSH1 0x1F NOT PUSH1 0x1F DUP3 ADD AND DUP3 ADD DUP1 PUSH1 0x40 MSTORE POP DUP2 ADD SWAP1 PUSH3 0x108 SWAP2 SWAP1 PUSH3 0x48F JUMP JUMPDEST PUSH1 0x40 MLOAD DUP3 PUSH4 0xFFFFFFFF AND PUSH1 0xE0 SHL DUP2 MSTORE PUSH1 0x4 ADD PUSH3 0x126 SWAP2 SWAP1 PUSH3 0x5DD JUMP JUMPDEST PUSH1 0x20 PUSH1 0x40 MLOAD DUP1 DUP4 SUB DUP2 DUP7 GAS DELEGATECALL ISZERO DUP1 ISZERO PUSH3 0x144 JUMPI RETURNDATASIZE PUSH1 0x0 DUP1 RETURNDATACOPY RETURNDATASIZE PUSH1 0x0 REVERT JUMPDEST POP POP POP POP PUSH1 0x40 MLOAD RETURNDATASIZE PUSH1 0x1F NOT PUSH1 0x1F DUP3 ADD AND DUP3 ADD DUP1 PUSH1 0x40 MSTORE POP DUP2 ADD SWAP1 PUSH3 0x16A SWAP2 SWAP1 PUSH3 0x668 JUMP JUMPDEST POP PUSH20 0x0 PUSH4 0xE8C2CB16 PUSH1 0x0 DUP1 SLOAD SWAP1 PUSH2 0x100 EXP SWAP1 DIV PUSH20 0xFFFFFFFFFFFFFFFFFFFFFFFFFFFFFFFFFFFFFFFF AND PUSH20 0xFFFFFFFFFFFFFFFFFFFFFFFFFFFFFFFFFFFFFFFF AND PUSH4 0x95D89B41 PUSH1 0x40 MLOAD DUP2 PUSH4 0xFFFFFFFF AND PUSH1 0xE0 SHL DUP2 MSTORE PUSH1 0x4 ADD PUSH1 0x0 PUSH1 0x40 MLOAD DUP1 DUP4 SUB DUP2 DUP7 GAS STATICCALL ISZERO DUP1 ISZERO PUSH3 0x1F1 JUMPI RETURNDATASIZE PUSH1 0x0 DUP1 RETURNDATACOPY RETURNDATASIZE PUSH1 0x0 REVERT JUMPDEST POP POP POP POP PUSH1 0x40 MLOAD RETURNDATASIZE PUSH1 0x0 DUP3 RETURNDATACOPY RETURNDATASIZE PUSH1 0x1F NOT PUSH1 0x1F DUP3 ADD AND DUP3 ADD DUP1 PUSH1 0x40 MSTORE POP DUP2 ADD SWAP1 PUSH3 0x21C SWAP2 SWAP1 PUSH3 0x48F JUMP JUMPDEST PUSH1 0x40 MLOAD DUP3 PUSH4 0xFFFFFFFF AND PUSH1 0xE0 SHL DUP2 MSTORE PUSH1 0x4 ADD PUSH3 0x23A SWAP2 SWAP1 PUSH3 0x73A JUMP JUMPDEST PUSH1 0x20 PUSH1 0x40 MLOAD DUP1 DUP4 SUB DUP2 DUP7 GAS DELEGATECALL ISZERO DUP1 ISZERO PUSH3 0x258 JUMPI RETURNDATASIZE PUSH1 0x0 DUP1 RETURNDATACOPY RETURNDATASIZE PUSH1 0x0 REVERT JUMPDEST POP POP POP POP PUSH1 0x40 MLOAD RETURNDATASIZE PUSH1 0x1F NOT PUSH1 0x1F DUP3 ADD AND DUP3 ADD DUP1 PUSH1 0x40 MSTORE POP DUP2 ADD SWAP1 PUSH3 0x27E SWAP2 SWAP1 PUSH3 0x668 JUMP JUMPDEST POP JUMP JUMPDEST PUSH1 0x40 MLOAD PUSH3 0x28F SWAP1 PUSH3 0x2EE JUMP JUMPDEST PUSH1 0x40 MLOAD DUP1 SWAP2 SUB SWAP1 PUSH1 0x0 CREATE DUP1 ISZERO DUP1 ISZERO PUSH3 0x2AC JUMPI RETURNDATASIZE PUSH1 0x0 DUP1 RETURNDATACOPY RETURNDATASIZE PUSH1 0x0 REVERT JUMPDEST POP PUSH1 0x0 DUP1 PUSH2 0x100 EXP DUP2 SLOAD DUP2 PUSH20 0xFFFFFFFFFFFFFFFFFFFFFFFFFFFFFFFFFFFFFFFF MUL NOT AND SWAP1 DUP4 PUSH20 0xFFFFFFFFFFFFFFFFFFFFFFFFFFFFFFFFFFFFFFFF AND MUL OR SWAP1 SSTORE POP JUMP JUMPDEST PUSH2 0x3EFC DUP1 PUSH3 0x789 DUP4 CODECOPY ADD SWAP1 JUMP JUMPDEST PUSH1 0x0 PUSH1 0x40 MLOAD SWAP1 POP SWAP1 JUMP JUMPDEST PUSH1 0x0 DUP1 REVERT JUMPDEST PUSH1 0x0 DUP1 REVERT JUMPDEST PUSH1 0x0 DUP1 REVERT JUMPDEST PUSH1 0x0 DUP1 REVERT JUMPDEST PUSH1 0x0 PUSH1 0x1F NOT PUSH1 0x1F DUP4 ADD AND SWAP1 POP SWAP2 SWAP1 POP JUMP JUMPDEST PUSH32 0x4E487B7100000000000000000000000000000000000000000000000000000000 PUSH1 0x0 MSTORE PUSH1 0x41 PUSH1 0x4 MSTORE PUSH1 0x24 PUSH1 0x0 REVERT JUMPDEST PUSH3 0x365 DUP3 PUSH3 0x31A JUMP JUMPDEST DUP2 ADD DUP2 DUP2 LT PUSH8 0xFFFFFFFFFFFFFFFF DUP3 GT OR ISZERO PUSH3 0x387 JUMPI PUSH3 0x386 PUSH3 0x32B JUMP JUMPDEST JUMPDEST DUP1 PUSH1 0x40 MSTORE POP POP POP JUMP JUMPDEST PUSH1 0x0 PUSH3 0x39C PUSH3 0x2FC JUMP JUMPDEST SWAP1 POP PUSH3 0x3AA DUP3 DUP3 PUSH3 0x35A JUMP JUMPDEST SWAP2 SWAP1 POP JUMP JUMPDEST PUSH1 0x0 PUSH8 0xFFFFFFFFFFFFFFFF DUP3 GT ISZERO PUSH3 0x3CD JUMPI PUSH3 0x3CC PUSH3 0x32B JUMP JUMPDEST JUMPDEST PUSH3 0x3D8 DUP3 PUSH3 0x31A JUMP JUMPDEST SWAP1 POP PUSH1 0x20 DUP2 ADD SWAP1 POP SWAP2 SWAP1 POP JUMP JUMPDEST PUSH1 0x0 JUMPDEST DUP4 DUP2 LT ISZERO PUSH3 0x405 JUMPI DUP1 DUP3 ADD MLOAD DUP2 DUP5 ADD MSTORE PUSH1 0x20 DUP2 ADD SWAP1 POP PUSH3 0x3E8 JUMP JUMPDEST PUSH1 0x0 DUP5 DUP5 ADD MSTORE POP POP POP POP JUMP JUMPDEST PUSH1 0x0 PUSH3 0x428 PUSH3 0x422 DUP5 PUSH3 0x3AF JUMP JUMPDEST PUSH3 0x390 JUMP JUMPDEST SWAP1 POP DUP3 DUP2 MSTORE PUSH1 0x20 DUP2 ADD DUP5 DUP5 DUP5 ADD GT ISZERO PUSH3 0x447 JUMPI PUSH3 0x446 PUSH3 0x315 JUMP JUMPDEST JUMPDEST PUSH3 0x454 DUP5 DUP3 DUP6 PUSH3 0x3E5 JUMP JUMPDEST POP SWAP4 SWAP3 POP POP POP JUMP JUMPDEST PUSH1 0x0 DUP3 PUSH1 0x1F DUP4 ADD SLT PUSH3 0x474 JUMPI PUSH3 0x473 PUSH3 0x310 JUMP JUMPDEST JUMPDEST DUP2 MLOAD PUSH3 0x486 DUP5 DUP3 PUSH1 0x20 DUP7 ADD PUSH3 0x411 JUMP JUMPDEST SWAP2 POP POP SWAP3 SWAP2 POP POP JUMP JUMPDEST PUSH1 0x0 PUSH1 0x20 DUP3 DUP5 SUB SLT ISZERO PUSH3 0x4A8 JUMPI PUSH3 0x4A7 PUSH3 0x306 JUMP JUMPDEST JUMPDEST PUSH1 0x0 DUP3 ADD MLOAD PUSH8 0xFFFFFFFFFFFFFFFF DUP2 GT ISZERO PUSH3 0x4C9 JUMPI PUSH3 0x4C8 PUSH3 0x30B JUMP JUMPDEST JUMPDEST PUSH3 0x4D7 DUP5 DUP3 DUP6 ADD PUSH3 0x45C JUMP JUMPDEST SWAP2 POP POP SWAP3 SWAP2 POP POP JUMP JUMPDEST PUSH1 0x0 DUP2 MLOAD SWAP1 POP SWAP2 SWAP1 POP JUMP JUMPDEST PUSH1 0x0 DUP3 DUP3 MSTORE PUSH1 0x20 DUP3 ADD SWAP1 POP SWAP3 SWAP2 POP POP JUMP JUMPDEST PUSH1 0x0 PUSH3 0x509 DUP3 PUSH3 0x4E0 JUMP JUMPDEST PUSH3 0x515 DUP2 DUP6 PUSH3 0x4EB JUMP JUMPDEST SWAP4 POP PUSH3 0x527 DUP2 DUP6 PUSH1 0x20 DUP7 ADD PUSH3 0x3E5 JUMP JUMPDEST PUSH3 0x532 DUP2 PUSH3 0x31A JUMP JUMPDEST DUP5 ADD SWAP2 POP POP SWAP3 SWAP2 POP POP JUMP JUMPDEST PUSH32 0x6172740000000000000000000000000000000000000000000000000000000000 PUSH1 0x0 DUP3 ADD MSTORE POP JUMP JUMPDEST PUSH1 0x0 PUSH3 0x575 PUSH1 0x3 DUP4 PUSH3 0x4EB JUMP JUMPDEST SWAP2 POP PUSH3 0x582 DUP3 PUSH3 0x53D JUMP JUMPDEST PUSH1 0x20 DUP3 ADD SWAP1 POP SWAP2 SWAP1 POP JUMP JUMPDEST PUSH32 0x746F6B656E206E616D6520646964206E6F74206D617463680000000000000000 PUSH1 0x0 DUP3 ADD MSTORE POP JUMP JUMPDEST PUSH1 0x0 PUSH3 0x5C5 PUSH1 0x18 DUP4 PUSH3 0x4EB JUMP JUMPDEST SWAP2 POP PUSH3 0x5D2 DUP3 PUSH3 0x58D JUMP JUMPDEST PUSH1 0x20 DUP3 ADD SWAP1 POP SWAP2 SWAP1 POP JUMP JUMPDEST PUSH1 0x0 PUSH1 0x60 DUP3 ADD SWAP1 POP DUP2 DUP2 SUB PUSH1 0x0 DUP4 ADD MSTORE PUSH3 0x5F9 DUP2 DUP5 PUSH3 0x4FC JUMP JUMPDEST SWAP1 POP DUP2 DUP2 SUB PUSH1 0x20 DUP4 ADD MSTORE PUSH3 0x60E DUP2 PUSH3 0x566 JUMP JUMPDEST SWAP1 POP DUP2 DUP2 SUB PUSH1 0x40 DUP4 ADD MSTORE PUSH3 0x623 DUP2 PUSH3 0x5B6 JUMP JUMPDEST SWAP1 POP SWAP3 SWAP2 POP POP JUMP JUMPDEST PUSH1 0x0 DUP2 ISZERO ISZERO SWAP1 POP SWAP2 SWAP1 POP JUMP JUMPDEST PUSH3 0x642 DUP2 PUSH3 0x62B JUMP JUMPDEST DUP2 EQ PUSH3 0x64E JUMPI PUSH1 0x0 DUP1 REVERT JUMPDEST POP JUMP JUMPDEST PUSH1 0x0 DUP2 MLOAD SWAP1 POP PUSH3 0x662 DUP2 PUSH3 0x637 JUMP JUMPDEST SWAP3 SWAP2 POP POP JUMP JUMPDEST PUSH1 0x0 PUSH1 0x20 DUP3 DUP5 SUB SLT ISZERO PUSH3 0x681 JUMPI PUSH3 0x680 PUSH3 0x306 JUMP JUMPDEST JUMPDEST PUSH1 0x0 PUSH3 0x691 DUP5 DUP3 DUP6 ADD PUSH3 0x651 JUMP JUMPDEST SWAP2 POP POP SWAP3 SWAP2 POP POP JUMP JUMPDEST PUSH32 0x4152540000000000000000000000000000000000000000000000000000000000 PUSH1 0x0 DUP3 ADD MSTORE POP JUMP JUMPDEST PUSH1 0x0 PUSH3 0x6D2 PUSH1 0x3 DUP4 PUSH3 0x4EB JUMP JUMPDEST SWAP2 POP PUSH3 0x6DF DUP3 PUSH3 0x69A JUMP JUMPDEST PUSH1 0x20 DUP3 ADD SWAP1 POP SWAP2 SWAP1 POP JUMP JUMPDEST PUSH32 0x746F6B656E2073796D626F6C20646964206E6F74206D61746368000000000000 PUSH1 0x0 DUP3 ADD MSTORE POP JUMP JUMPDEST PUSH1 0x0 PUSH3 0x722 PUSH1 0x1A DUP4 PUSH3 0x4EB JUMP JUMPDEST SWAP2 POP PUSH3 0x72F DUP3 PUSH3 0x6EA JUMP JUMPDEST PUSH1 0x20 DUP3 ADD SWAP1 POP SWAP2 SWAP1 POP JUMP JUMPDEST PUSH1 0x0 PUSH1 0x60 DUP3 ADD SWAP1 POP DUP2 DUP2 SUB PUSH1 0x0 DUP4 ADD MSTORE PUSH3 0x756 DUP2 DUP5 PUSH3 0x4FC JUMP JUMPDEST SWAP1 POP DUP2 DUP2 SUB PUSH1 0x20 DUP4 ADD MSTORE PUSH3 0x76B DUP2 PUSH3 0x6C3 JUMP JUMPDEST SWAP1 POP DUP2 DUP2 SUB PUSH1 0x40 DUP4 ADD MSTORE PUSH3 0x780 DUP2 PUSH3 0x713 JUMP JUMPDEST SWAP1 POP SWAP3 SWAP2 POP POP JUMP INVALID PUSH1 0x80 PUSH1 0x40 MSTORE PUSH8 0x4563918244F40000 PUSH1 0x8 SSTORE CALLVALUE DUP1 ISZERO PUSH3 0x1D JUMPI PUSH1 0x0 DUP1 REVERT JUMPDEST POP PUSH1 0x40 MLOAD DUP1 PUSH1 0x40 ADD PUSH1 0x40 MSTORE DUP1 PUSH1 0x3 DUP2 MSTORE PUSH1 0x20 ADD PUSH32 0x6172740000000000000000000000000000000000000000000000000000000000 DUP2 MSTORE POP PUSH1 0x40 MLOAD DUP1 PUSH1 0x40 ADD PUSH1 0x40 MSTORE DUP1 PUSH1 0x3 DUP2 MSTORE PUSH1 0x20 ADD PUSH32 0x4152540000000000000000000000000000000000000000000000000000000000 DUP2 MSTORE POP DUP2 PUSH1 0x0 SWAP1 DUP2 PUSH3 0x9B SWAP2 SWAP1 PUSH3 0x41E JUMP JUMPDEST POP DUP1 PUSH1 0x1 SWAP1 DUP2 PUSH3 0xAD SWAP2 SWAP1 PUSH3 0x41E JUMP JUMPDEST POP POP POP PUSH3 0xD0 PUSH3 0xC4 PUSH3 0xD6 PUSH1 0x20 SHL PUSH1 0x20 SHR JUMP JUMPDEST PUSH3 0xDE PUSH1 0x20 SHL PUSH1 0x20 SHR JUMP JUMPDEST PUSH3 0x505 JUMP JUMPDEST PUSH1 0x0 CALLER SWAP1 POP SWAP1 JUMP JUMPDEST PUSH1 0x0 PUSH1 0x6 PUSH1 0x0 SWAP1 SLOAD SWAP1 PUSH2 0x100 EXP SWAP1 DIV PUSH20 0xFFFFFFFFFFFFFFFFFFFFFFFFFFFFFFFFFFFFFFFF AND SWAP1 POP DUP2 PUSH1 0x6 PUSH1 0x0 PUSH2 0x100 EXP DUP2 SLOAD DUP2 PUSH20 0xFFFFFFFFFFFFFFFFFFFFFFFFFFFFFFFFFFFFFFFF MUL NOT AND SWAP1 DUP4 PUSH20 0xFFFFFFFFFFFFFFFFFFFFFFFFFFFFFFFFFFFFFFFF AND MUL OR SWAP1 SSTORE POP DUP2 PUSH20 0xFFFFFFFFFFFFFFFFFFFFFFFFFFFFFFFFFFFFFFFF AND DUP2 PUSH20 0xFFFFFFFFFFFFFFFFFFFFFFFFFFFFFFFFFFFFFFFF AND PUSH32 0x8BE0079C531659141344CD1FD0A4F28419497F9722A3DAAFE3B4186F6B6457E0 PUSH1 0x40 MLOAD PUSH1 0x40 MLOAD DUP1 SWAP2 SUB SWAP1 LOG3 POP POP JUMP JUMPDEST PUSH1 0x0 DUP2 MLOAD SWAP1 POP SWAP2 SWAP1 POP JUMP JUMPDEST PUSH32 0x4E487B7100000000000000000000000000000000000000000000000000000000 PUSH1 0x0 MSTORE PUSH1 0x41 PUSH1 0x4 MSTORE PUSH1 0x24 PUSH1 0x0 REVERT JUMPDEST PUSH32 0x4E487B7100000000000000000000000000000000000000000000000000000000 PUSH1 0x0 MSTORE PUSH1 0x22 PUSH1 0x4 MSTORE PUSH1 0x24 PUSH1 0x0 REVERT JUMPDEST PUSH1 0x0 PUSH1 0x2 DUP3 DIV SWAP1 POP PUSH1 0x1 DUP3 AND DUP1 PUSH3 0x226 JUMPI PUSH1 0x7F DUP3 AND SWAP2 POP JUMPDEST PUSH1 0x20 DUP3 LT DUP2 SUB PUSH3 0x23C JUMPI PUSH3 0x23B PUSH3 0x1DE JUMP JUMPDEST JUMPDEST POP SWAP2 SWAP1 POP JUMP JUMPDEST PUSH1 0x0 DUP2 SWAP1 POP DUP2 PUSH1 0x0 MSTORE PUSH1 0x20 PUSH1 0x0 KECCAK256 SWAP1 POP SWAP2 SWAP1 POP JUMP JUMPDEST PUSH1 0x0 PUSH1 0x20 PUSH1 0x1F DUP4 ADD DIV SWAP1 POP SWAP2 SWAP1 POP JUMP JUMPDEST PUSH1 0x0 DUP3 DUP3 SHL SWAP1 POP SWAP3 SWAP2 POP POP JUMP JUMPDEST PUSH1 0x0 PUSH1 0x8 DUP4 MUL PUSH3 0x2A6 PUSH32 0xFFFFFFFFFFFFFFFFFFFFFFFFFFFFFFFFFFFFFFFFFFFFFFFFFFFFFFFFFFFFFFFF DUP3 PUSH3 0x267 JUMP JUMPDEST PUSH3 0x2B2 DUP7 DUP4 PUSH3 0x267 JUMP JUMPDEST SWAP6 POP DUP1 NOT DUP5 AND SWAP4 POP DUP1 DUP7 AND DUP5 OR SWAP3 POP POP POP SWAP4 SWAP3 POP POP POP JUMP JUMPDEST PUSH1 0x0 DUP2 SWAP1 POP SWAP2 SWAP1 POP JUMP JUMPDEST PUSH1 0x0 DUP2 SWAP1 POP SWAP2 SWAP1 POP JUMP JUMPDEST PUSH1 0x0 PUSH3 0x2FF PUSH3 0x2F9 PUSH3 0x2F3 DUP5 PUSH3 0x2CA JUMP JUMPDEST PUSH3 0x2D4 JUMP JUMPDEST PUSH3 0x2CA JUMP JUMPDEST SWAP1 POP SWAP2 SWAP1 POP JUMP JUMPDEST PUSH1 0x0 DUP2 SWAP1 POP SWAP2 SWAP1 POP JUMP JUMPDEST PUSH3 0x31B DUP4 PUSH3 0x2DE JUMP JUMPDEST PUSH3 0x333 PUSH3 0x32A DUP3 PUSH3 0x306 JUMP JUMPDEST DUP5 DUP5 SLOAD PUSH3 0x274 JUMP JUMPDEST DUP3 SSTORE POP POP POP POP JUMP JUMPDEST PUSH1 0x0 SWAP1 JUMP JUMPDEST PUSH3 0x34A PUSH3 0x33B JUMP JUMPDEST PUSH3 0x357 DUP2 DUP5 DUP5 PUSH3 0x310 JUMP JUMPDEST POP POP POP JUMP JUMPDEST JUMPDEST DUP2 DUP2 LT ISZERO PUSH3 0x37F JUMPI PUSH3 0x373 PUSH1 0x0 DUP3 PUSH3 0x340 JUMP JUMPDEST PUSH1 0x1 DUP2 ADD SWAP1 POP PUSH3 0x35D JUMP JUMPDEST POP POP JUMP JUMPDEST PUSH1 0x1F DUP3 GT ISZERO PUSH3 0x3CE JUMPI PUSH3 0x398 DUP2 PUSH3 0x242 JUMP JUMPDEST PUSH3 0x3A3 DUP5 PUSH3 0x257 JUMP JUMPDEST DUP2 ADD PUSH1 0x20 DUP6 LT ISZERO PUSH3 0x3B3 JUMPI DUP2 SWAP1 POP JUMPDEST PUSH3 0x3CB PUSH3 0x3C2 DUP6 PUSH3 0x257 JUMP JUMPDEST DUP4 ADD DUP3 PUSH3 0x35C JUMP JUMPDEST POP POP JUMPDEST POP POP POP JUMP JUMPDEST PUSH1 0x0 DUP3 DUP3 SHR SWAP1 POP SWAP3 SWAP2 POP POP JUMP JUMPDEST PUSH1 0x0 PUSH3 0x3F3 PUSH1 0x0 NOT DUP5 PUSH1 0x8 MUL PUSH3 0x3D3 JUMP JUMPDEST NOT DUP1 DUP4 AND SWAP2 POP POP SWAP3 SWAP2 POP POP JUMP JUMPDEST PUSH1 0x0 PUSH3 0x40E DUP4 DUP4 PUSH3 0x3E0 JUMP JUMPDEST SWAP2 POP DUP3 PUSH1 0x2 MUL DUP3 OR SWAP1 POP SWAP3 SWAP2 POP POP JUMP JUMPDEST PUSH3 0x429 DUP3 PUSH3 0x1A4 JUMP JUMPDEST PUSH8 0xFFFFFFFFFFFFFFFF DUP2 GT ISZERO PUSH3 0x445 JUMPI PUSH3 0x444 PUSH3 0x1AF JUMP JUMPDEST JUMPDEST PUSH3 0x451 DUP3 SLOAD PUSH3 0x20D JUMP JUMPDEST PUSH3 0x45E DUP3 DUP3 DUP6 PUSH3 0x383 JUMP JUMPDEST PUSH1 0x0 PUSH1 0x20 SWAP1 POP PUSH1 0x1F DUP4 GT PUSH1 0x1 DUP2 EQ PUSH3 0x496 JUMPI PUSH1 0x0 DUP5 ISZERO PUSH3 0x481 JUMPI DUP3 DUP8 ADD MLOAD SWAP1 POP JUMPDEST PUSH3 0x48D DUP6 DUP3 PUSH3 0x400 JUMP JUMPDEST DUP7 SSTORE POP PUSH3 0x4FD JUMP JUMPDEST PUSH1 0x1F NOT DUP5 AND PUSH3 0x4A6 DUP7 PUSH3 0x242 JUMP JUMPDEST PUSH1 0x0 JUMPDEST DUP3 DUP2 LT ISZERO PUSH3 0x4D0 JUMPI DUP5 DUP10 ADD MLOAD DUP3 SSTORE PUSH1 0x1 DUP3 ADD SWAP2 POP PUSH1 0x20 DUP6 ADD SWAP5 POP PUSH1 0x20 DUP2 ADD SWAP1 POP PUSH3 0x4A9 JUMP JUMPDEST DUP7 DUP4 LT ISZERO PUSH3 0x4F0 JUMPI DUP5 DUP10 ADD MLOAD PUSH3 0x4EC PUSH1 0x1F DUP10 AND DUP3 PUSH3 0x3E0 JUMP JUMPDEST DUP4 SSTORE POP JUMPDEST PUSH1 0x1 PUSH1 0x2 DUP9 MUL ADD DUP9 SSTORE POP POP POP JUMPDEST POP POP POP POP POP POP JUMP JUMPDEST PUSH2 0x39E7 DUP1 PUSH3 0x515 PUSH1 0x0 CODECOPY PUSH1 0x0 RETURN INVALID PUSH1 0x80 PUSH1 0x40 MSTORE PUSH1 0x4 CALLDATASIZE LT PUSH2 0x166 JUMPI PUSH1 0x0 CALLDATALOAD PUSH1 0xE0 SHR DUP1 PUSH4 0x6352211E GT PUSH2 0xD1 JUMPI DUP1 PUSH4 0x9B6C354E GT PUSH2 0x8A JUMPI DUP1 PUSH4 0xC87B56DD GT PUSH2 0x64 JUMPI DUP1 PUSH4 0xC87B56DD EQ PUSH2 0x511 JUMPI DUP1 PUSH4 0xDDCA3F43 EQ PUSH2 0x54E JUMPI DUP1 PUSH4 0xE985E9C5 EQ PUSH2 0x579 JUMPI DUP1 PUSH4 0xF2FDE38B EQ PUSH2 0x5B6 JUMPI PUSH2 0x166 JUMP JUMPDEST DUP1 PUSH4 0x9B6C354E EQ PUSH2 0x493 JUMPI DUP1 PUSH4 0xA22CB465 EQ PUSH2 0x4BF JUMPI DUP1 PUSH4 0xB88D4FDE EQ PUSH2 0x4E8 JUMPI PUSH2 0x166 JUMP JUMPDEST DUP1 PUSH4 0x6352211E EQ PUSH2 0x383 JUMPI DUP1 PUSH4 0x70A08231 EQ PUSH2 0x3C0 JUMPI DUP1 PUSH4 0x715018A6 EQ PUSH2 0x3FD JUMPI DUP1 PUSH4 0x8DA5CB5B EQ PUSH2 0x414 JUMPI DUP1 PUSH4 0x9012C4A8 EQ PUSH2 0x43F JUMPI DUP1 PUSH4 0x95D89B41 EQ PUSH2 0x468 JUMPI PUSH2 0x166 JUMP JUMPDEST DUP1 PUSH4 0x125C4B2B GT PUSH2 0x123 JUMPI DUP1 PUSH4 0x125C4B2B EQ PUSH2 0x2A3 JUMPI DUP1 PUSH4 0x23B872DD EQ PUSH2 0x2E0 JUMPI DUP1 PUSH4 0x2F2670C3 EQ PUSH2 0x309 JUMPI DUP1 PUSH4 0x382D0412 EQ PUSH2 0x325 JUMPI DUP1 PUSH4 0x3CCFD60B EQ PUSH2 0x350 JUMPI DUP1 PUSH4 0x42842E0E EQ PUSH2 0x35A JUMPI PUSH2 0x166 JUMP JUMPDEST DUP1 PUSH4 0x1FFC9A7 EQ PUSH2 0x16B JUMPI DUP1 PUSH4 0x667FAC3 EQ PUSH2 0x1A8 JUMPI DUP1 PUSH4 0x6FDDE03 EQ PUSH2 0x1E9 JUMPI DUP1 PUSH4 0x81812FC EQ PUSH2 0x214 JUMPI DUP1 PUSH4 0x95EA7B3 EQ PUSH2 0x251 JUMPI DUP1 PUSH4 0xCE90EC2 EQ PUSH2 0x27A JUMPI JUMPDEST PUSH1 0x0 DUP1 REVERT JUMPDEST CALLVALUE DUP1 ISZERO PUSH2 0x177 JUMPI PUSH1 0x0 DUP1 REVERT JUMPDEST POP PUSH2 0x192 PUSH1 0x4 DUP1 CALLDATASIZE SUB DUP2 ADD SWAP1 PUSH2 0x18D SWAP2 SWAP1 PUSH2 0x242D JUMP JUMPDEST PUSH2 0x5DF JUMP JUMPDEST PUSH1 0x40 MLOAD PUSH2 0x19F SWAP2 SWAP1 PUSH2 0x2475 JUMP JUMPDEST PUSH1 0x40 MLOAD DUP1 SWAP2 SUB SWAP1 RETURN JUMPDEST CALLVALUE DUP1 ISZERO PUSH2 0x1B4 JUMPI PUSH1 0x0 DUP1 REVERT JUMPDEST POP PUSH2 0x1CF PUSH1 0x4 DUP1 CALLDATASIZE SUB DUP2 ADD SWAP1 PUSH2 0x1CA SWAP2 SWAP1 PUSH2 0x24C6 JUMP JUMPDEST PUSH2 0x6C1 JUMP JUMPDEST PUSH1 0x40 MLOAD PUSH2 0x1E0 SWAP6 SWAP5 SWAP4 SWAP3 SWAP2 SWAP1 PUSH2 0x25AE JUMP JUMPDEST PUSH1 0x40 MLOAD DUP1 SWAP2 SUB SWAP1 RETURN JUMPDEST CALLVALUE DUP1 ISZERO PUSH2 0x1F5 JUMPI PUSH1 0x0 DUP1 REVERT JUMPDEST POP PUSH2 0x1FE PUSH2 0x7A9 JUMP JUMPDEST PUSH1 0x40 MLOAD PUSH2 0x20B SWAP2 SWAP1 PUSH2 0x2608 JUMP JUMPDEST PUSH1 0x40 MLOAD DUP1 SWAP2 SUB SWAP1 RETURN JUMPDEST CALLVALUE DUP1 ISZERO PUSH2 0x220 JUMPI PUSH1 0x0 DUP1 REVERT JUMPDEST POP PUSH2 0x23B PUSH1 0x4 DUP1 CALLDATASIZE SUB DUP2 ADD SWAP1 PUSH2 0x236 SWAP2 SWAP1 PUSH2 0x24C6 JUMP JUMPDEST PUSH2 0x83B JUMP JUMPDEST PUSH1 0x40 MLOAD PUSH2 0x248 SWAP2 SWAP1 PUSH2 0x266B JUMP JUMPDEST PUSH1 0x40 MLOAD DUP1 SWAP2 SUB SWAP1 RETURN JUMPDEST CALLVALUE DUP1 ISZERO PUSH2 0x25D JUMPI PUSH1 0x0 DUP1 REVERT JUMPDEST POP PUSH2 0x278 PUSH1 0x4 DUP1 CALLDATASIZE SUB DUP2 ADD SWAP1 PUSH2 0x273 SWAP2 SWAP1 PUSH2 0x26B2 JUMP JUMPDEST PUSH2 0x881 JUMP JUMPDEST STOP JUMPDEST CALLVALUE DUP1 ISZERO PUSH2 0x286 JUMPI PUSH1 0x0 DUP1 REVERT JUMPDEST POP PUSH2 0x2A1 PUSH1 0x4 DUP1 CALLDATASIZE SUB DUP2 ADD SWAP1 PUSH2 0x29C SWAP2 SWAP1 PUSH2 0x24C6 JUMP JUMPDEST PUSH2 0x998 JUMP JUMPDEST STOP JUMPDEST CALLVALUE DUP1 ISZERO PUSH2 0x2AF JUMPI PUSH1 0x0 DUP1 REVERT JUMPDEST POP PUSH2 0x2CA PUSH1 0x4 DUP1 CALLDATASIZE SUB DUP2 ADD SWAP1 PUSH2 0x2C5 SWAP2 SWAP1 PUSH2 0x26F2 JUMP JUMPDEST PUSH2 0xA3C JUMP JUMPDEST PUSH1 0x40 MLOAD PUSH2 0x2D7 SWAP2 SWAP1 PUSH2 0x28BF JUMP JUMPDEST PUSH1 0x40 MLOAD DUP1 SWAP2 SUB SWAP1 RETURN JUMPDEST CALLVALUE DUP1 ISZERO PUSH2 0x2EC JUMPI PUSH1 0x0 DUP1 REVERT JUMPDEST POP PUSH2 0x307 PUSH1 0x4 DUP1 CALLDATASIZE SUB DUP2 ADD SWAP1 PUSH2 0x302 SWAP2 SWAP1 PUSH2 0x28E1 JUMP JUMPDEST PUSH2 0xC42 JUMP JUMPDEST STOP JUMPDEST PUSH2 0x323 PUSH1 0x4 DUP1 CALLDATASIZE SUB DUP2 ADD SWAP1 PUSH2 0x31E SWAP2 SWAP1 PUSH2 0x2A69 JUMP JUMPDEST PUSH2 0xCA2 JUMP JUMPDEST STOP JUMPDEST CALLVALUE DUP1 ISZERO PUSH2 0x331 JUMPI PUSH1 0x0 DUP1 REVERT JUMPDEST POP PUSH2 0x33A PUSH2 0xCBD JUMP JUMPDEST PUSH1 0x40 MLOAD PUSH2 0x347 SWAP2 SWAP1 PUSH2 0x28BF JUMP JUMPDEST PUSH1 0x40 MLOAD DUP1 SWAP2 SUB SWAP1 RETURN JUMPDEST PUSH2 0x358 PUSH2 0xDFC JUMP JUMPDEST STOP JUMPDEST CALLVALUE DUP1 ISZERO PUSH2 0x366 JUMPI PUSH1 0x0 DUP1 REVERT JUMPDEST POP PUSH2 0x381 PUSH1 0x4 DUP1 CALLDATASIZE SUB DUP2 ADD SWAP1 PUSH2 0x37C SWAP2 SWAP1 PUSH2 0x28E1 JUMP JUMPDEST PUSH2 0xE5A JUMP JUMPDEST STOP JUMPDEST CALLVALUE DUP1 ISZERO PUSH2 0x38F JUMPI PUSH1 0x0 DUP1 REVERT JUMPDEST POP PUSH2 0x3AA PUSH1 0x4 DUP1 CALLDATASIZE SUB DUP2 ADD SWAP1 PUSH2 0x3A5 SWAP2 SWAP1 PUSH2 0x24C6 JUMP JUMPDEST PUSH2 0xE7A JUMP JUMPDEST PUSH1 0x40 MLOAD PUSH2 0x3B7 SWAP2 SWAP1 PUSH2 0x266B JUMP JUMPDEST PUSH1 0x40 MLOAD DUP1 SWAP2 SUB SWAP1 RETURN JUMPDEST CALLVALUE DUP1 ISZERO PUSH2 0x3CC JUMPI PUSH1 0x0 DUP1 REVERT JUMPDEST POP PUSH2 0x3E7 PUSH1 0x4 DUP1 CALLDATASIZE SUB DUP2 ADD SWAP1 PUSH2 0x3E2 SWAP2 SWAP1 PUSH2 0x26F2 JUMP JUMPDEST PUSH2 0xF00 JUMP JUMPDEST PUSH1 0x40 MLOAD PUSH2 0x3F4 SWAP2 SWAP1 PUSH2 0x2AB2 JUMP JUMPDEST PUSH1 0x40 MLOAD DUP1 SWAP2 SUB SWAP1 RETURN JUMPDEST CALLVALUE DUP1 ISZERO PUSH2 0x409 JUMPI PUSH1 0x0 DUP1 REVERT JUMPDEST POP PUSH2 0x412 PUSH2 0xFB7 JUMP JUMPDEST STOP JUMPDEST CALLVALUE DUP1 ISZERO PUSH2 0x420 JUMPI PUSH1 0x0 DUP1 REVERT JUMPDEST POP PUSH2 0x429 PUSH2 0xFCB JUMP JUMPDEST PUSH1 0x40 MLOAD PUSH2 0x436 SWAP2 SWAP1 PUSH2 0x266B JUMP JUMPDEST PUSH1 0x40 MLOAD DUP1 SWAP2 SUB SWAP1 RETURN JUMPDEST CALLVALUE DUP1 ISZERO PUSH2 0x44B JUMPI PUSH1 0x0 DUP1 REVERT JUMPDEST POP PUSH2 0x466 PUSH1 0x4 DUP1 CALLDATASIZE SUB DUP2 ADD SWAP1 PUSH2 0x461 SWAP2 SWAP1 PUSH2 0x24C6 JUMP JUMPDEST PUSH2 0xFF5 JUMP JUMPDEST STOP JUMPDEST CALLVALUE DUP1 ISZERO PUSH2 0x474 JUMPI PUSH1 0x0 DUP1 REVERT JUMPDEST POP PUSH2 0x47D PUSH2 0x1007 JUMP JUMPDEST PUSH1 0x40 MLOAD PUSH2 0x48A SWAP2 SWAP1 PUSH2 0x2608 JUMP JUMPDEST PUSH1 0x40 MLOAD DUP1 SWAP2 SUB SWAP1 RETURN JUMPDEST CALLVALUE DUP1 ISZERO PUSH2 0x49F JUMPI PUSH1 0x0 DUP1 REVERT JUMPDEST POP PUSH2 0x4A8 PUSH2 0x1099 JUMP JUMPDEST PUSH1 0x40 MLOAD PUSH2 0x4B6 SWAP3 SWAP2 SWAP1 PUSH2 0x2ACD JUMP JUMPDEST PUSH1 0x40 MLOAD DUP1 SWAP2 SUB SWAP1 RETURN JUMPDEST CALLVALUE DUP1 ISZERO PUSH2 0x4CB JUMPI PUSH1 0x0 DUP1 REVERT JUMPDEST POP PUSH2 0x4E6 PUSH1 0x4 DUP1 CALLDATASIZE SUB DUP2 ADD SWAP1 PUSH2 0x4E1 SWAP2 SWAP1 PUSH2 0x2B22 JUMP JUMPDEST PUSH2 0x10C5 JUMP JUMPDEST STOP JUMPDEST CALLVALUE DUP1 ISZERO PUSH2 0x4F4 JUMPI PUSH1 0x0 DUP1 REVERT JUMPDEST POP PUSH2 0x50F PUSH1 0x4 DUP1 CALLDATASIZE SUB DUP2 ADD SWAP1 PUSH2 0x50A SWAP2 SWAP1 PUSH2 0x2C03 JUMP JUMPDEST PUSH2 0x10DB JUMP JUMPDEST STOP JUMPDEST CALLVALUE DUP1 ISZERO PUSH2 0x51D JUMPI PUSH1 0x0 DUP1 REVERT JUMPDEST POP PUSH2 0x538 PUSH1 0x4 DUP1 CALLDATASIZE SUB DUP2 ADD SWAP1 PUSH2 0x533 SWAP2 SWAP1 PUSH2 0x24C6 JUMP JUMPDEST PUSH2 0x113D JUMP JUMPDEST PUSH1 0x40 MLOAD PUSH2 0x545 SWAP2 SWAP1 PUSH2 0x2608 JUMP JUMPDEST PUSH1 0x40 MLOAD DUP1 SWAP2 SUB SWAP1 RETURN JUMPDEST CALLVALUE DUP1 ISZERO PUSH2 0x55A JUMPI PUSH1 0x0 DUP1 REVERT JUMPDEST POP PUSH2 0x563 PUSH2 0x11A5 JUMP JUMPDEST PUSH1 0x40 MLOAD PUSH2 0x570 SWAP2 SWAP1 PUSH2 0x2AB2 JUMP JUMPDEST PUSH1 0x40 MLOAD DUP1 SWAP2 SUB SWAP1 RETURN JUMPDEST CALLVALUE DUP1 ISZERO PUSH2 0x585 JUMPI PUSH1 0x0 DUP1 REVERT JUMPDEST POP PUSH2 0x5A0 PUSH1 0x4 DUP1 CALLDATASIZE SUB DUP2 ADD SWAP1 PUSH2 0x59B SWAP2 SWAP1 PUSH2 0x2C86 JUMP JUMPDEST PUSH2 0x11AB JUMP JUMPDEST PUSH1 0x40 MLOAD PUSH2 0x5AD SWAP2 SWAP1 PUSH2 0x2475 JUMP JUMPDEST PUSH1 0x40 MLOAD DUP1 SWAP2 SUB SWAP1 RETURN JUMPDEST CALLVALUE DUP1 ISZERO PUSH2 0x5C2 JUMPI PUSH1 0x0 DUP1 REVERT JUMPDEST POP PUSH2 0x5DD PUSH1 0x4 DUP1 CALLDATASIZE SUB DUP2 ADD SWAP1 PUSH2 0x5D8 SWAP2 SWAP1 PUSH2 0x26F2 JUMP JUMPDEST PUSH2 0x123F JUMP JUMPDEST STOP JUMPDEST PUSH1 0x0 PUSH32 0x80AC58CD00000000000000000000000000000000000000000000000000000000 PUSH28 0xFFFFFFFFFFFFFFFFFFFFFFFFFFFFFFFFFFFFFFFFFFFFFFFFFFFFFFFF NOT AND DUP3 PUSH28 0xFFFFFFFFFFFFFFFFFFFFFFFFFFFFFFFFFFFFFFFFFFFFFFFFFFFFFFFF NOT AND EQ DUP1 PUSH2 0x6AA JUMPI POP PUSH32 0x5B5E139F00000000000000000000000000000000000000000000000000000000 PUSH28 0xFFFFFFFFFFFFFFFFFFFFFFFFFFFFFFFFFFFFFFFFFFFFFFFFFFFFFFFF NOT AND DUP3 PUSH28 0xFFFFFFFFFFFFFFFFFFFFFFFFFFFFFFFFFFFFFFFFFFFFFFFFFFFFFFFF NOT AND EQ JUMPDEST DUP1 PUSH2 0x6BA JUMPI POP PUSH2 0x6B9 DUP3 PUSH2 0x12C2 JUMP JUMPDEST JUMPDEST SWAP1 POP SWAP2 SWAP1 POP JUMP JUMPDEST PUSH1 0x9 DUP2 DUP2 SLOAD DUP2 LT PUSH2 0x6D1 JUMPI PUSH1 0x0 DUP1 REVERT JUMPDEST SWAP1 PUSH1 0x0 MSTORE PUSH1 0x20 PUSH1 0x0 KECCAK256 SWAP1 PUSH1 0x4 MUL ADD PUSH1 0x0 SWAP2 POP SWAP1 POP DUP1 PUSH1 0x0 ADD DUP1 SLOAD PUSH2 0x6F4 SWAP1 PUSH2 0x2CF5 JUMP JUMPDEST DUP1 PUSH1 0x1F ADD PUSH1 0x20 DUP1 SWAP2 DIV MUL PUSH1 0x20 ADD PUSH1 0x40 MLOAD SWAP1 DUP2 ADD PUSH1 0x40 MSTORE DUP1 SWAP3 SWAP2 SWAP1 DUP2 DUP2 MSTORE PUSH1 0x20 ADD DUP3 DUP1 SLOAD PUSH2 0x720 SWAP1 PUSH2 0x2CF5 JUMP JUMPDEST DUP1 ISZERO PUSH2 0x76D JUMPI DUP1 PUSH1 0x1F LT PUSH2 0x742 JUMPI PUSH2 0x100 DUP1 DUP4 SLOAD DIV MUL DUP4 MSTORE SWAP2 PUSH1 0x20 ADD SWAP2 PUSH2 0x76D JUMP JUMPDEST DUP3 ADD SWAP2 SWAP1 PUSH1 0x0 MSTORE PUSH1 0x20 PUSH1 0x0 KECCAK256 SWAP1 JUMPDEST DUP2 SLOAD DUP2 MSTORE SWAP1 PUSH1 0x1 ADD SWAP1 PUSH1 0x20 ADD DUP1 DUP4 GT PUSH2 0x750 JUMPI DUP3 SWAP1 SUB PUSH1 0x1F AND DUP3 ADD SWAP2 JUMPDEST POP POP POP POP POP SWAP1 DUP1 PUSH1 0x1 ADD SLOAD SWAP1 DUP1 PUSH1 0x2 ADD SLOAD SWAP1 DUP1 PUSH1 0x3 ADD PUSH1 0x0 SWAP1 SLOAD SWAP1 PUSH2 0x100 EXP SWAP1 DIV PUSH1 0xFF AND SWAP1 DUP1 PUSH1 0x3 ADD PUSH1 0x1 SWAP1 SLOAD SWAP1 PUSH2 0x100 EXP SWAP1 DIV PUSH1 0xFF AND SWAP1 POP DUP6 JUMP JUMPDEST PUSH1 0x60 PUSH1 0x0 DUP1 SLOAD PUSH2 0x7B8 SWAP1 PUSH2 0x2CF5 JUMP JUMPDEST DUP1 PUSH1 0x1F ADD PUSH1 0x20 DUP1 SWAP2 DIV MUL PUSH1 0x20 ADD PUSH1 0x40 MLOAD SWAP1 DUP2 ADD PUSH1 0x40 MSTORE DUP1 SWAP3 SWAP2 SWAP1 DUP2 DUP2 MSTORE PUSH1 0x20 ADD DUP3 DUP1 SLOAD PUSH2 0x7E4 SWAP1 PUSH2 0x2CF5 JUMP JUMPDEST DUP1 ISZERO PUSH2 0x831 JUMPI DUP1 PUSH1 0x1F LT PUSH2 0x806 JUMPI PUSH2 0x100 DUP1 DUP4 SLOAD DIV MUL DUP4 MSTORE SWAP2 PUSH1 0x20 ADD SWAP2 PUSH2 0x831 JUMP JUMPDEST DUP3 ADD SWAP2 SWAP1 PUSH1 0x0 MSTORE PUSH1 0x20 PUSH1 0x0 KECCAK256 SWAP1 JUMPDEST DUP2 SLOAD DUP2 MSTORE SWAP1 PUSH1 0x1 ADD SWAP1 PUSH1 0x20 ADD DUP1 DUP4 GT PUSH2 0x814 JUMPI DUP3 SWAP1 SUB PUSH1 0x1F AND DUP3 ADD SWAP2 JUMPDEST POP POP POP POP POP SWAP1 POP SWAP1 JUMP JUMPDEST PUSH1 0x0 PUSH2 0x846 DUP3 PUSH2 0x132C JUMP JUMPDEST PUSH1 0x4 PUSH1 0x0 DUP4 DUP2 MSTORE PUSH1 0x20 ADD SWAP1 DUP2 MSTORE PUSH1 0x20 ADD PUSH1 0x0 KECCAK256 PUSH1 0x0 SWAP1 SLOAD SWAP1 PUSH2 0x100 EXP SWAP1 DIV PUSH20 0xFFFFFFFFFFFFFFFFFFFFFFFFFFFFFFFFFFFFFFFF AND SWAP1 POP SWAP2 SWAP1 POP JUMP JUMPDEST PUSH1 0x0 PUSH2 0x88C DUP3 PUSH2 0xE7A JUMP JUMPDEST SWAP1 POP DUP1 PUSH20 0xFFFFFFFFFFFFFFFFFFFFFFFFFFFFFFFFFFFFFFFF AND DUP4 PUSH20 0xFFFFFFFFFFFFFFFFFFFFFFFFFFFFFFFFFFFFFFFF AND SUB PUSH2 0x8FC JUMPI PUSH1 0x40 MLOAD PUSH32 0x8C379A000000000000000000000000000000000000000000000000000000000 DUP2 MSTORE PUSH1 0x4 ADD PUSH2 0x8F3 SWAP1 PUSH2 0x2D98 JUMP JUMPDEST PUSH1 0x40 MLOAD DUP1 SWAP2 SUB SWAP1 REVERT JUMPDEST DUP1 PUSH20 0xFFFFFFFFFFFFFFFFFFFFFFFFFFFFFFFFFFFFFFFF AND PUSH2 0x91B PUSH2 0x1377 JUMP JUMPDEST PUSH20 0xFFFFFFFFFFFFFFFFFFFFFFFFFFFFFFFFFFFFFFFF AND EQ DUP1 PUSH2 0x94A JUMPI POP PUSH2 0x949 DUP2 PUSH2 0x944 PUSH2 0x1377 JUMP JUMPDEST PUSH2 0x11AB JUMP JUMPDEST JUMPDEST PUSH2 0x989 JUMPI PUSH1 0x40 MLOAD PUSH32 0x8C379A000000000000000000000000000000000000000000000000000000000 DUP2 MSTORE PUSH1 0x4 ADD PUSH2 0x980 SWAP1 PUSH2 0x2E2A JUMP JUMPDEST PUSH1 0x40 MLOAD DUP1 SWAP2 SUB SWAP1 REVERT JUMPDEST PUSH2 0x993 DUP4 DUP4 PUSH2 0x137F JUMP JUMPDEST POP POP POP JUMP JUMPDEST CALLER PUSH20 0xFFFFFFFFFFFFFFFFFFFFFFFFFFFFFFFFFFFFFFFF AND PUSH2 0x9B8 DUP3 PUSH2 0xE7A JUMP JUMPDEST PUSH20 0xFFFFFFFFFFFFFFFFFFFFFFFFFFFFFFFFFFFFFFFF AND EQ PUSH2 0x9D8 JUMPI PUSH1 0x0 DUP1 REVERT JUMPDEST PUSH1 0x0 PUSH1 0x9 DUP3 DUP2 SLOAD DUP2 LT PUSH2 0x9EE JUMPI PUSH2 0x9ED PUSH2 0x2E4A JUMP JUMPDEST JUMPDEST SWAP1 PUSH1 0x0 MSTORE PUSH1 0x20 PUSH1 0x0 KECCAK256 SWAP1 PUSH1 0x4 MUL ADD SWAP1 POP DUP1 PUSH1 0x3 ADD PUSH1 0x0 DUP2 DUP2 SWAP1 SLOAD SWAP1 PUSH2 0x100 EXP SWAP1 DIV PUSH1 0xFF AND DUP1 SWAP3 SWAP2 SWAP1 PUSH2 0xA1F SWAP1 PUSH2 0x2EA8 JUMP JUMPDEST SWAP2 SWAP1 PUSH2 0x100 EXP DUP2 SLOAD DUP2 PUSH1 0xFF MUL NOT AND SWAP1 DUP4 PUSH1 0xFF AND MUL OR SWAP1 SSTORE POP POP POP POP JUMP JUMPDEST PUSH1 0x60 PUSH1 0x0 PUSH2 0xA49 DUP4 PUSH2 0xF00 JUMP JUMPDEST PUSH8 0xFFFFFFFFFFFFFFFF DUP2 GT ISZERO PUSH2 0xA62 JUMPI PUSH2 0xA61 PUSH2 0x293E JUMP JUMPDEST JUMPDEST PUSH1 0x40 MLOAD SWAP1 DUP1 DUP3 MSTORE DUP1 PUSH1 0x20 MUL PUSH1 0x20 ADD DUP3 ADD PUSH1 0x40 MSTORE DUP1 ISZERO PUSH2 0xA9B JUMPI DUP2 PUSH1 0x20 ADD JUMPDEST PUSH2 0xA88 PUSH2 0x238C JUMP JUMPDEST DUP2 MSTORE PUSH1 0x20 ADD SWAP1 PUSH1 0x1 SWAP1 SUB SWAP1 DUP2 PUSH2 0xA80 JUMPI SWAP1 POP JUMPDEST POP SWAP1 POP PUSH1 0x0 DUP1 JUMPDEST PUSH1 0x9 DUP1 SLOAD SWAP1 POP DUP2 LT ISZERO PUSH2 0xC37 JUMPI DUP5 PUSH20 0xFFFFFFFFFFFFFFFFFFFFFFFFFFFFFFFFFFFFFFFF AND PUSH2 0xACF DUP3 PUSH2 0xE7A JUMP JUMPDEST PUSH20 0xFFFFFFFFFFFFFFFFFFFFFFFFFFFFFFFFFFFFFFFF AND SUB PUSH2 0xC24 JUMPI PUSH1 0x9 DUP2 DUP2 SLOAD DUP2 LT PUSH2 0xAFE JUMPI PUSH2 0xAFD PUSH2 0x2E4A JUMP JUMPDEST JUMPDEST SWAP1 PUSH1 0x0 MSTORE PUSH1 0x20 PUSH1 0x0 KECCAK256 SWAP1 PUSH1 0x4 MUL ADD PUSH1 0x40 MLOAD DUP1 PUSH1 0xA0 ADD PUSH1 0x40 MSTORE SWAP1 DUP2 PUSH1 0x0 DUP3 ADD DUP1 SLOAD PUSH2 0xB27 SWAP1 PUSH2 0x2CF5 JUMP JUMPDEST DUP1 PUSH1 0x1F ADD PUSH1 0x20 DUP1 SWAP2 DIV MUL PUSH1 0x20 ADD PUSH1 0x40 MLOAD SWAP1 DUP2 ADD PUSH1 0x40 MSTORE DUP1 SWAP3 SWAP2 SWAP1 DUP2 DUP2 MSTORE PUSH1 0x20 ADD DUP3 DUP1 SLOAD PUSH2 0xB53 SWAP1 PUSH2 0x2CF5 JUMP JUMPDEST DUP1 ISZERO PUSH2 0xBA0 JUMPI DUP1 PUSH1 0x1F LT PUSH2 0xB75 JUMPI PUSH2 0x100 DUP1 DUP4 SLOAD DIV MUL DUP4 MSTORE SWAP2 PUSH1 0x20 ADD SWAP2 PUSH2 0xBA0 JUMP JUMPDEST DUP3 ADD SWAP2 SWAP1 PUSH1 0x0 MSTORE PUSH1 0x20 PUSH1 0x0 KECCAK256 SWAP1 JUMPDEST DUP2 SLOAD DUP2 MSTORE SWAP1 PUSH1 0x1 ADD SWAP1 PUSH1 0x20 ADD DUP1 DUP4 GT PUSH2 0xB83 JUMPI DUP3 SWAP1 SUB PUSH1 0x1F AND DUP3 ADD SWAP2 JUMPDEST POP POP POP POP POP DUP2 MSTORE PUSH1 0x20 ADD PUSH1 0x1 DUP3 ADD SLOAD DUP2 MSTORE PUSH1 0x20 ADD PUSH1 0x2 DUP3 ADD SLOAD DUP2 MSTORE PUSH1 0x20 ADD PUSH1 0x3 DUP3 ADD PUSH1 0x0 SWAP1 SLOAD SWAP1 PUSH2 0x100 EXP SWAP1 DIV PUSH1 0xFF AND PUSH1 0xFF AND PUSH1 0xFF AND DUP2 MSTORE PUSH1 0x20 ADD PUSH1 0x3 DUP3 ADD PUSH1 0x1 SWAP1 SLOAD SWAP1 PUSH2 0x100 EXP SWAP1 DIV PUSH1 0xFF AND PUSH1 0xFF AND PUSH1 0xFF AND DUP2 MSTORE POP POP DUP4 DUP4 DUP2 MLOAD DUP2 LT PUSH2 0xC0A JUMPI PUSH2 0xC09 PUSH2 0x2E4A JUMP JUMPDEST JUMPDEST PUSH1 0x20 MUL PUSH1 0x20 ADD ADD DUP2 SWAP1 MSTORE POP DUP2 DUP1 PUSH2 0xC20 SWAP1 PUSH2 0x2ED1 JUMP JUMPDEST SWAP3 POP POP JUMPDEST DUP1 DUP1 PUSH2 0xC2F SWAP1 PUSH2 0x2ED1 JUMP JUMPDEST SWAP2 POP POP PUSH2 0xAA2 JUMP JUMPDEST POP DUP2 SWAP3 POP POP POP SWAP2 SWAP1 POP JUMP JUMPDEST PUSH2 0xC53 PUSH2 0xC4D PUSH2 0x1377 JUMP JUMPDEST DUP3 PUSH2 0x1438 JUMP JUMPDEST PUSH2 0xC92 JUMPI PUSH1 0x40 MLOAD PUSH32 0x8C379A000000000000000000000000000000000000000000000000000000000 DUP2 MSTORE PUSH1 0x4 ADD PUSH2 0xC89 SWAP1 PUSH2 0x2F8B JUMP JUMPDEST PUSH1 0x40 MLOAD DUP1 SWAP2 SUB SWAP1 REVERT JUMPDEST PUSH2 0xC9D DUP4 DUP4 DUP4 PUSH2 0x14CD JUMP JUMPDEST POP POP POP JUMP JUMPDEST PUSH1 0x8 SLOAD CALLVALUE LT ISZERO PUSH2 0xCB1 JUMPI PUSH1 0x0 DUP1 REVERT JUMPDEST PUSH2 0xCBA DUP2 PUSH2 0x17C6 JUMP JUMPDEST POP JUMP JUMPDEST PUSH1 0x60 PUSH1 0x9 DUP1 SLOAD DUP1 PUSH1 0x20 MUL PUSH1 0x20 ADD PUSH1 0x40 MLOAD SWAP1 DUP2 ADD PUSH1 0x40 MSTORE DUP1 SWAP3 SWAP2 SWAP1 DUP2 DUP2 MSTORE PUSH1 0x20 ADD PUSH1 0x0 SWAP1 JUMPDEST DUP3 DUP3 LT ISZERO PUSH2 0xDF3 JUMPI DUP4 DUP3 SWAP1 PUSH1 0x0 MSTORE PUSH1 0x20 PUSH1 0x0 KECCAK256 SWAP1 PUSH1 0x4 MUL ADD PUSH1 0x40 MLOAD DUP1 PUSH1 0xA0 ADD PUSH1 0x40 MSTORE SWAP1 DUP2 PUSH1 0x0 DUP3 ADD DUP1 SLOAD PUSH2 0xD14 SWAP1 PUSH2 0x2CF5 JUMP JUMPDEST DUP1 PUSH1 0x1F ADD PUSH1 0x20 DUP1 SWAP2 DIV MUL PUSH1 0x20 ADD PUSH1 0x40 MLOAD SWAP1 DUP2 ADD PUSH1 0x40 MSTORE DUP1 SWAP3 SWAP2 SWAP1 DUP2 DUP2 MSTORE PUSH1 0x20 ADD DUP3 DUP1 SLOAD PUSH2 0xD40 SWAP1 PUSH2 0x2CF5 JUMP JUMPDEST DUP1 ISZERO PUSH2 0xD8D JUMPI DUP1 PUSH1 0x1F LT PUSH2 0xD62 JUMPI PUSH2 0x100 DUP1 DUP4 SLOAD DIV MUL DUP4 MSTORE SWAP2 PUSH1 0x20 ADD SWAP2 PUSH2 0xD8D JUMP JUMPDEST DUP3 ADD SWAP2 SWAP1 PUSH1 0x0 MSTORE PUSH1 0x20 PUSH1 0x0 KECCAK256 SWAP1 JUMPDEST DUP2 SLOAD DUP2 MSTORE SWAP1 PUSH1 0x1 ADD SWAP1 PUSH1 0x20 ADD DUP1 DUP4 GT PUSH2 0xD70 JUMPI DUP3 SWAP1 SUB PUSH1 0x1F AND DUP3 ADD SWAP2 JUMPDEST POP POP POP POP POP DUP2 MSTORE PUSH1 0x20 ADD PUSH1 0x1 DUP3 ADD SLOAD DUP2 MSTORE PUSH1 0x20 ADD PUSH1 0x2 DUP3 ADD SLOAD DUP2 MSTORE PUSH1 0x20 ADD PUSH1 0x3 DUP3 ADD PUSH1 0x0 SWAP1 SLOAD SWAP1 PUSH2 0x100 EXP SWAP1 DIV PUSH1 0xFF AND PUSH1 0xFF AND PUSH1 0xFF AND DUP2 MSTORE PUSH1 0x20 ADD PUSH1 0x3 DUP3 ADD PUSH1 0x1 SWAP1 SLOAD SWAP1 PUSH2 0x100 EXP SWAP1 DIV PUSH1 0xFF AND PUSH1 0xFF AND PUSH1 0xFF AND DUP2 MSTORE POP POP DUP2 MSTORE PUSH1 0x20 ADD SWAP1 PUSH1 0x1 ADD SWAP1 PUSH2 0xCE1 JUMP JUMPDEST POP POP POP POP SWAP1 POP SWAP1 JUMP JUMPDEST PUSH2 0xE04 PUSH2 0x1933 JUMP JUMPDEST PUSH1 0x0 PUSH2 0xE0E PUSH2 0xFCB JUMP JUMPDEST SWAP1 POP DUP1 PUSH20 0xFFFFFFFFFFFFFFFFFFFFFFFFFFFFFFFFFFFFFFFF AND PUSH2 0x8FC SELFBALANCE SWAP1 DUP2 ISZERO MUL SWAP1 PUSH1 0x40 MLOAD PUSH1 0x0 PUSH1 0x40 MLOAD DUP1 DUP4 SUB DUP2 DUP6 DUP9 DUP9 CALL SWAP4 POP POP POP POP ISZERO DUP1 ISZERO PUSH2 0xE56 JUMPI RETURNDATASIZE PUSH1 0x0 DUP1 RETURNDATACOPY RETURNDATASIZE PUSH1 0x0 REVERT JUMPDEST POP POP JUMP JUMPDEST PUSH2 0xE75 DUP4 DUP4 DUP4 PUSH1 0x40 MLOAD DUP1 PUSH1 0x20 ADD PUSH1 0x40 MSTORE DUP1 PUSH1 0x0 DUP2 MSTORE POP PUSH2 0x10DB JUMP JUMPDEST POP POP POP JUMP JUMPDEST PUSH1 0x0 DUP1 PUSH2 0xE86 DUP4 PUSH2 0x19B1 JUMP JUMPDEST SWAP1 POP PUSH1 0x0 PUSH20 0xFFFFFFFFFFFFFFFFFFFFFFFFFFFFFFFFFFFFFFFF AND DUP2 PUSH20 0xFFFFFFFFFFFFFFFFFFFFFFFFFFFFFFFFFFFFFFFF AND SUB PUSH2 0xEF7 JUMPI PUSH1 0x40 MLOAD PUSH32 0x8C379A000000000000000000000000000000000000000000000000000000000 DUP2 MSTORE PUSH1 0x4 ADD PUSH2 0xEEE SWAP1 PUSH2 0x2FF7 JUMP JUMPDEST PUSH1 0x40 MLOAD DUP1 SWAP2 SUB SWAP1 REVERT JUMPDEST DUP1 SWAP2 POP POP SWAP2 SWAP1 POP JUMP JUMPDEST PUSH1 0x0 DUP1 PUSH20 0xFFFFFFFFFFFFFFFFFFFFFFFFFFFFFFFFFFFFFFFF AND DUP3 PUSH20 0xFFFFFFFFFFFFFFFFFFFFFFFFFFFFFFFFFFFFFFFF AND SUB PUSH2 0xF70 JUMPI PUSH1 0x40 MLOAD PUSH32 0x8C379A000000000000000000000000000000000000000000000000000000000 DUP2 MSTORE PUSH1 0x4 ADD PUSH2 0xF67 SWAP1 PUSH2 0x3089 JUMP JUMPDEST PUSH1 0x40 MLOAD DUP1 SWAP2 SUB SWAP1 REVERT JUMPDEST PUSH1 0x3 PUSH1 0x0 DUP4 PUSH20 0xFFFFFFFFFFFFFFFFFFFFFFFFFFFFFFFFFFFFFFFF AND PUSH20 0xFFFFFFFFFFFFFFFFFFFFFFFFFFFFFFFFFFFFFFFF AND DUP2 MSTORE PUSH1 0x20 ADD SWAP1 DUP2 MSTORE PUSH1 0x20 ADD PUSH1 0x0 KECCAK256 SLOAD SWAP1 POP SWAP2 SWAP1 POP JUMP JUMPDEST PUSH2 0xFBF PUSH2 0x1933 JUMP JUMPDEST PUSH2 0xFC9 PUSH1 0x0 PUSH2 0x19EE JUMP JUMPDEST JUMP JUMPDEST PUSH1 0x0 PUSH1 0x6 PUSH1 0x0 SWAP1 SLOAD SWAP1 PUSH2 0x100 EXP SWAP1 DIV PUSH20 0xFFFFFFFFFFFFFFFFFFFFFFFFFFFFFFFFFFFFFFFF AND SWAP1 POP SWAP1 JUMP JUMPDEST PUSH2 0xFFD PUSH2 0x1933 JUMP JUMPDEST DUP1 PUSH1 0x8 DUP2 SWAP1 SSTORE POP POP JUMP JUMPDEST PUSH1 0x60 PUSH1 0x1 DUP1 SLOAD PUSH2 0x1016 SWAP1 PUSH2 0x2CF5 JUMP JUMPDEST DUP1 PUSH1 0x1F ADD PUSH1 0x20 DUP1 SWAP2 DIV MUL PUSH1 0x20 ADD PUSH1 0x40 MLOAD SWAP1 DUP2 ADD PUSH1 0x40 MSTORE DUP1 SWAP3 SWAP2 SWAP1 DUP2 DUP2 MSTORE PUSH1 0x20 ADD DUP3 DUP1 SLOAD PUSH2 0x1042 SWAP1 PUSH2 0x2CF5 JUMP JUMPDEST DUP1 ISZERO PUSH2 0x108F JUMPI DUP1 PUSH1 0x1F LT PUSH2 0x1064 JUMPI PUSH2 0x100 DUP1 DUP4 SLOAD DIV MUL DUP4 MSTORE SWAP2 PUSH1 0x20 ADD SWAP2 PUSH2 0x108F JUMP JUMPDEST DUP3 ADD SWAP2 SWAP1 PUSH1 0x0 MSTORE PUSH1 0x20 PUSH1 0x0 KECCAK256 SWAP1 JUMPDEST DUP2 SLOAD DUP2 MSTORE SWAP1 PUSH1 0x1 ADD SWAP1 PUSH1 0x20 ADD DUP1 DUP4 GT PUSH2 0x1072 JUMPI DUP3 SWAP1 SUB PUSH1 0x1F AND DUP3 ADD SWAP2 JUMPDEST POP POP POP POP POP SWAP1 POP SWAP1 JUMP JUMPDEST PUSH1 0x0 DUP1 PUSH1 0x0 ADDRESS SWAP1 POP PUSH1 0x0 PUSH8 0xDE0B6B3A7640000 SELFBALANCE PUSH2 0x10B7 SWAP2 SWAP1 PUSH2 0x30D8 JUMP JUMPDEST SWAP1 POP DUP2 DUP2 SWAP4 POP SWAP4 POP POP POP SWAP1 SWAP2 JUMP JUMPDEST PUSH2 0x10D7 PUSH2 0x10D0 PUSH2 0x1377 JUMP JUMPDEST DUP4 DUP4 PUSH2 0x1AB4 JUMP JUMPDEST POP POP JUMP JUMPDEST PUSH2 0x10EC PUSH2 0x10E6 PUSH2 0x1377 JUMP JUMPDEST DUP4 PUSH2 0x1438 JUMP JUMPDEST PUSH2 0x112B JUMPI PUSH1 0x40 MLOAD PUSH32 0x8C379A000000000000000000000000000000000000000000000000000000000 DUP2 MSTORE PUSH1 0x4 ADD PUSH2 0x1122 SWAP1 PUSH2 0x2F8B JUMP JUMPDEST PUSH1 0x40 MLOAD DUP1 SWAP2 SUB SWAP1 REVERT JUMPDEST PUSH2 0x1137 DUP5 DUP5 DUP5 DUP5 PUSH2 0x1C20 JUMP JUMPDEST POP POP POP POP JUMP JUMPDEST PUSH1 0x60 PUSH2 0x1148 DUP3 PUSH2 0x132C JUMP JUMPDEST PUSH1 0x0 PUSH2 0x1152 PUSH2 0x1C7C JUMP JUMPDEST SWAP1 POP PUSH1 0x0 DUP2 MLOAD GT PUSH2 0x1172 JUMPI PUSH1 0x40 MLOAD DUP1 PUSH1 0x20 ADD PUSH1 0x40 MSTORE DUP1 PUSH1 0x0 DUP2 MSTORE POP PUSH2 0x119D JUMP JUMPDEST DUP1 PUSH2 0x117C DUP5 PUSH2 0x1C93 JUMP JUMPDEST PUSH1 0x40 MLOAD PUSH1 0x20 ADD PUSH2 0x118D SWAP3 SWAP2 SWAP1 PUSH2 0x3145 JUMP JUMPDEST PUSH1 0x40 MLOAD PUSH1 0x20 DUP2 DUP4 SUB SUB DUP2 MSTORE SWAP1 PUSH1 0x40 MSTORE JUMPDEST SWAP2 POP POP SWAP2 SWAP1 POP JUMP JUMPDEST PUSH1 0x8 SLOAD DUP2 JUMP JUMPDEST PUSH1 0x0 PUSH1 0x5 PUSH1 0x0 DUP5 PUSH20 0xFFFFFFFFFFFFFFFFFFFFFFFFFFFFFFFFFFFFFFFF AND PUSH20 0xFFFFFFFFFFFFFFFFFFFFFFFFFFFFFFFFFFFFFFFF AND DUP2 MSTORE PUSH1 0x20 ADD SWAP1 DUP2 MSTORE PUSH1 0x20 ADD PUSH1 0x0 KECCAK256 PUSH1 0x0 DUP4 PUSH20 0xFFFFFFFFFFFFFFFFFFFFFFFFFFFFFFFFFFFFFFFF AND PUSH20 0xFFFFFFFFFFFFFFFFFFFFFFFFFFFFFFFFFFFFFFFF AND DUP2 MSTORE PUSH1 0x20 ADD SWAP1 DUP2 MSTORE PUSH1 0x20 ADD PUSH1 0x0 KECCAK256 PUSH1 0x0 SWAP1 SLOAD SWAP1 PUSH2 0x100 EXP SWAP1 DIV PUSH1 0xFF AND SWAP1 POP SWAP3 SWAP2 POP POP JUMP JUMPDEST PUSH2 0x1247 PUSH2 0x1933 JUMP JUMPDEST PUSH1 0x0 PUSH20 0xFFFFFFFFFFFFFFFFFFFFFFFFFFFFFFFFFFFFFFFF AND DUP2 PUSH20 0xFFFFFFFFFFFFFFFFFFFFFFFFFFFFFFFFFFFFFFFF AND SUB PUSH2 0x12B6 JUMPI PUSH1 0x40 MLOAD PUSH32 0x8C379A000000000000000000000000000000000000000000000000000000000 DUP2 MSTORE PUSH1 0x4 ADD PUSH2 0x12AD SWAP1 PUSH2 0x31DB JUMP JUMPDEST PUSH1 0x40 MLOAD DUP1 SWAP2 SUB SWAP1 REVERT JUMPDEST PUSH2 0x12BF DUP2 PUSH2 0x19EE JUMP JUMPDEST POP JUMP JUMPDEST PUSH1 0x0 PUSH32 0x1FFC9A700000000000000000000000000000000000000000000000000000000 PUSH28 0xFFFFFFFFFFFFFFFFFFFFFFFFFFFFFFFFFFFFFFFFFFFFFFFFFFFFFFFF NOT AND DUP3 PUSH28 0xFFFFFFFFFFFFFFFFFFFFFFFFFFFFFFFFFFFFFFFFFFFFFFFFFFFFFFFF NOT AND EQ SWAP1 POP SWAP2 SWAP1 POP JUMP JUMPDEST PUSH2 0x1335 DUP2 PUSH2 0x1D61 JUMP JUMPDEST PUSH2 0x1374 JUMPI PUSH1 0x40 MLOAD PUSH32 0x8C379A000000000000000000000000000000000000000000000000000000000 DUP2 MSTORE PUSH1 0x4 ADD PUSH2 0x136B SWAP1 PUSH2 0x2FF7 JUMP JUMPDEST PUSH1 0x40 MLOAD DUP1 SWAP2 SUB SWAP1 REVERT JUMPDEST POP JUMP JUMPDEST PUSH1 0x0 CALLER SWAP1 POP SWAP1 JUMP JUMPDEST DUP2 PUSH1 0x4 PUSH1 0x0 DUP4 DUP2 MSTORE PUSH1 0x20 ADD SWAP1 DUP2 MSTORE PUSH1 0x20 ADD PUSH1 0x0 KECCAK256 PUSH1 0x0 PUSH2 0x100 EXP DUP2 SLOAD DUP2 PUSH20 0xFFFFFFFFFFFFFFFFFFFFFFFFFFFFFFFFFFFFFFFF MUL NOT AND SWAP1 DUP4 PUSH20 0xFFFFFFFFFFFFFFFFFFFFFFFFFFFFFFFFFFFFFFFF AND MUL OR SWAP1 SSTORE POP DUP1 DUP3 PUSH20 0xFFFFFFFFFFFFFFFFFFFFFFFFFFFFFFFFFFFFFFFF AND PUSH2 0x13F2 DUP4 PUSH2 0xE7A JUMP JUMPDEST PUSH20 0xFFFFFFFFFFFFFFFFFFFFFFFFFFFFFFFFFFFFFFFF AND PUSH32 0x8C5BE1E5EBEC7D5BD14F71427D1E84F3DD0314C0F7B2291E5B200AC8C7C3B925 PUSH1 0x40 MLOAD PUSH1 0x40 MLOAD DUP1 SWAP2 SUB SWAP1 LOG4 POP POP JUMP JUMPDEST PUSH1 0x0 DUP1 PUSH2 0x1444 DUP4 PUSH2 0xE7A JUMP JUMPDEST SWAP1 POP DUP1 PUSH20 0xFFFFFFFFFFFFFFFFFFFFFFFFFFFFFFFFFFFFFFFF AND DUP5 PUSH20 0xFFFFFFFFFFFFFFFFFFFFFFFFFFFFFFFFFFFFFFFF AND EQ DUP1 PUSH2 0x1486 JUMPI POP PUSH2 0x1485 DUP2 DUP6 PUSH2 0x11AB JUMP JUMPDEST JUMPDEST DUP1 PUSH2 0x14C4 JUMPI POP DUP4 PUSH20 0xFFFFFFFFFFFFFFFFFFFFFFFFFFFFFFFFFFFFFFFF AND PUSH2 0x14AC DUP5 PUSH2 0x83B JUMP JUMPDEST PUSH20 0xFFFFFFFFFFFFFFFFFFFFFFFFFFFFFFFFFFFFFFFF AND EQ JUMPDEST SWAP2 POP POP SWAP3 SWAP2 POP POP JUMP JUMPDEST DUP3 PUSH20 0xFFFFFFFFFFFFFFFFFFFFFFFFFFFFFFFFFFFFFFFF AND PUSH2 0x14ED DUP3 PUSH2 0xE7A JUMP JUMPDEST PUSH20 0xFFFFFFFFFFFFFFFFFFFFFFFFFFFFFFFFFFFFFFFF AND EQ PUSH2 0x1543 JUMPI PUSH1 0x40 MLOAD PUSH32 0x8C379A000000000000000000000000000000000000000000000000000000000 DUP2 MSTORE PUSH1 0x4 ADD PUSH2 0x153A SWAP1 PUSH2 0x326D JUMP JUMPDEST PUSH1 0x40 MLOAD DUP1 SWAP2 SUB SWAP1 REVERT JUMPDEST PUSH1 0x0 PUSH20 0xFFFFFFFFFFFFFFFFFFFFFFFFFFFFFFFFFFFFFFFF AND DUP3 PUSH20 0xFFFFFFFFFFFFFFFFFFFFFFFFFFFFFFFFFFFFFFFF AND SUB PUSH2 0x15B2 JUMPI PUSH1 0x40 MLOAD PUSH32 0x8C379A000000000000000000000000000000000000000000000000000000000 DUP2 MSTORE PUSH1 0x4 ADD PUSH2 0x15A9 SWAP1 PUSH2 0x32FF JUMP JUMPDEST PUSH1 0x40 MLOAD DUP1 SWAP2 SUB SWAP1 REVERT JUMPDEST PUSH2 0x15BF DUP4 DUP4 DUP4 PUSH1 0x1 PUSH2 0x1DA2 JUMP JUMPDEST DUP3 PUSH20 0xFFFFFFFFFFFFFFFFFFFFFFFFFFFFFFFFFFFFFFFF AND PUSH2 0x15DF DUP3 PUSH2 0xE7A JUMP JUMPDEST PUSH20 0xFFFFFFFFFFFFFFFFFFFFFFFFFFFFFFFFFFFFFFFF AND EQ PUSH2 0x1635 JUMPI PUSH1 0x40 MLOAD PUSH32 0x8C379A000000000000000000000000000000000000000000000000000000000 DUP2 MSTORE PUSH1 0x4 ADD PUSH2 0x162C SWAP1 PUSH2 0x326D JUMP JUMPDEST PUSH1 0x40 MLOAD DUP1 SWAP2 SUB SWAP1 REVERT JUMPDEST PUSH1 0x4 PUSH1 0x0 DUP3 DUP2 MSTORE PUSH1 0x20 ADD SWAP1 DUP2 MSTORE PUSH1 0x20 ADD PUSH1 0x0 KECCAK256 PUSH1 0x0 PUSH2 0x100 EXP DUP2 SLOAD SWAP1 PUSH20 0xFFFFFFFFFFFFFFFFFFFFFFFFFFFFFFFFFFFFFFFF MUL NOT AND SWAP1 SSTORE PUSH1 0x1 PUSH1 0x3 PUSH1 0x0 DUP6 PUSH20 0xFFFFFFFFFFFFFFFFFFFFFFFFFFFFFFFFFFFFFFFF AND PUSH20 0xFFFFFFFFFFFFFFFFFFFFFFFFFFFFFFFFFFFFFFFF AND DUP2 MSTORE PUSH1 0x20 ADD SWAP1 DUP2 MSTORE PUSH1 0x20 ADD PUSH1 0x0 KECCAK256 PUSH1 0x0 DUP3 DUP3 SLOAD SUB SWAP3 POP POP DUP2 SWAP1 SSTORE POP PUSH1 0x1 PUSH1 0x3 PUSH1 0x0 DUP5 PUSH20 0xFFFFFFFFFFFFFFFFFFFFFFFFFFFFFFFFFFFFFFFF AND PUSH20 0xFFFFFFFFFFFFFFFFFFFFFFFFFFFFFFFFFFFFFFFF AND DUP2 MSTORE PUSH1 0x20 ADD SWAP1 DUP2 MSTORE PUSH1 0x20 ADD PUSH1 0x0 KECCAK256 PUSH1 0x0 DUP3 DUP3 SLOAD ADD SWAP3 POP POP DUP2 SWAP1 SSTORE POP DUP2 PUSH1 0x2 PUSH1 0x0 DUP4 DUP2 MSTORE PUSH1 0x20 ADD SWAP1 DUP2 MSTORE PUSH1 0x20 ADD PUSH1 0x0 KECCAK256 PUSH1 0x0 PUSH2 0x100 EXP DUP2 SLOAD DUP2 PUSH20 0xFFFFFFFFFFFFFFFFFFFFFFFFFFFFFFFFFFFFFFFF MUL NOT AND SWAP1 DUP4 PUSH20 0xFFFFFFFFFFFFFFFFFFFFFFFFFFFFFFFFFFFFFFFF AND MUL OR SWAP1 SSTORE POP DUP1 DUP3 PUSH20 0xFFFFFFFFFFFFFFFFFFFFFFFFFFFFFFFFFFFFFFFF AND DUP5 PUSH20 0xFFFFFFFFFFFFFFFFFFFFFFFFFFFFFFFFFFFFFFFF AND PUSH32 0xDDF252AD1BE2C89B69C2B068FC378DAA952BA7F163C4A11628F55A4DF523B3EF PUSH1 0x40 MLOAD PUSH1 0x40 MLOAD DUP1 SWAP2 SUB SWAP1 LOG4 PUSH2 0x17C1 DUP4 DUP4 DUP4 PUSH1 0x1 PUSH2 0x1DA8 JUMP JUMPDEST POP POP POP JUMP JUMPDEST PUSH1 0x0 PUSH2 0x17D3 PUSH2 0x3E8 PUSH2 0x1DAE JUMP JUMPDEST SWAP1 POP PUSH1 0x0 PUSH2 0x17E7 PUSH7 0x2386F26FC10000 PUSH2 0x1DAE JUMP JUMPDEST SWAP1 POP PUSH1 0x0 PUSH1 0x40 MLOAD DUP1 PUSH1 0xA0 ADD PUSH1 0x40 MSTORE DUP1 DUP6 DUP2 MSTORE PUSH1 0x20 ADD PUSH1 0x7 SLOAD DUP2 MSTORE PUSH1 0x20 ADD DUP4 DUP2 MSTORE PUSH1 0x20 ADD PUSH1 0x1 PUSH1 0xFF AND DUP2 MSTORE PUSH1 0x20 ADD DUP5 PUSH1 0xFF AND DUP2 MSTORE POP SWAP1 POP PUSH1 0x9 DUP2 SWAP1 DUP1 PUSH1 0x1 DUP2 SLOAD ADD DUP1 DUP3 SSTORE DUP1 SWAP2 POP POP PUSH1 0x1 SWAP1 SUB SWAP1 PUSH1 0x0 MSTORE PUSH1 0x20 PUSH1 0x0 KECCAK256 SWAP1 PUSH1 0x4 MUL ADD PUSH1 0x0 SWAP1 SWAP2 SWAP1 SWAP2 SWAP1 SWAP2 POP PUSH1 0x0 DUP3 ADD MLOAD DUP2 PUSH1 0x0 ADD SWAP1 DUP2 PUSH2 0x185E SWAP2 SWAP1 PUSH2 0x34CB JUMP JUMPDEST POP PUSH1 0x20 DUP3 ADD MLOAD DUP2 PUSH1 0x1 ADD SSTORE PUSH1 0x40 DUP3 ADD MLOAD DUP2 PUSH1 0x2 ADD SSTORE PUSH1 0x60 DUP3 ADD MLOAD DUP2 PUSH1 0x3 ADD PUSH1 0x0 PUSH2 0x100 EXP DUP2 SLOAD DUP2 PUSH1 0xFF MUL NOT AND SWAP1 DUP4 PUSH1 0xFF AND MUL OR SWAP1 SSTORE POP PUSH1 0x80 DUP3 ADD MLOAD DUP2 PUSH1 0x3 ADD PUSH1 0x1 PUSH2 0x100 EXP DUP2 SLOAD DUP2 PUSH1 0xFF MUL NOT AND SWAP1 DUP4 PUSH1 0xFF AND MUL OR SWAP1 SSTORE POP POP POP PUSH2 0x18C3 CALLER PUSH1 0x7 SLOAD PUSH2 0x1DF9 JUMP JUMPDEST CALLER PUSH20 0xFFFFFFFFFFFFFFFFFFFFFFFFFFFFFFFFFFFFFFFF AND PUSH32 0xE6C61928F551CEAB96529F7F8E907A65BAD987BE27D94F9F8B77238BD4335B06 PUSH1 0x7 SLOAD DUP5 PUSH1 0x40 MLOAD PUSH2 0x190D SWAP3 SWAP2 SWAP1 PUSH2 0x359D JUMP JUMPDEST PUSH1 0x40 MLOAD DUP1 SWAP2 SUB SWAP1 LOG2 PUSH1 0x7 PUSH1 0x0 DUP2 SLOAD DUP1 SWAP3 SWAP2 SWAP1 PUSH2 0x1928 SWAP1 PUSH2 0x2ED1 JUMP JUMPDEST SWAP2 SWAP1 POP SSTORE POP POP POP POP POP JUMP JUMPDEST PUSH2 0x193B PUSH2 0x1377 JUMP JUMPDEST PUSH20 0xFFFFFFFFFFFFFFFFFFFFFFFFFFFFFFFFFFFFFFFF AND PUSH2 0x1959 PUSH2 0xFCB JUMP JUMPDEST PUSH20 0xFFFFFFFFFFFFFFFFFFFFFFFFFFFFFFFFFFFFFFFF AND EQ PUSH2 0x19AF JUMPI PUSH1 0x40 MLOAD PUSH32 0x8C379A000000000000000000000000000000000000000000000000000000000 DUP2 MSTORE PUSH1 0x4 ADD PUSH2 0x19A6 SWAP1 PUSH2 0x3612 JUMP JUMPDEST PUSH1 0x40 MLOAD DUP1 SWAP2 SUB SWAP1 REVERT JUMPDEST JUMP JUMPDEST PUSH1 0x0 PUSH1 0x2 PUSH1 0x0 DUP4 DUP2 MSTORE PUSH1 0x20 ADD SWAP1 DUP2 MSTORE PUSH1 0x20 ADD PUSH1 0x0 KECCAK256 PUSH1 0x0 SWAP1 SLOAD SWAP1 PUSH2 0x100 EXP SWAP1 DIV PUSH20 0xFFFFFFFFFFFFFFFFFFFFFFFFFFFFFFFFFFFFFFFF AND SWAP1 POP SWAP2 SWAP1 POP JUMP JUMPDEST PUSH1 0x0 PUSH1 0x6 PUSH1 0x0 SWAP1 SLOAD SWAP1 PUSH2 0x100 EXP SWAP1 DIV PUSH20 0xFFFFFFFFFFFFFFFFFFFFFFFFFFFFFFFFFFFFFFFF AND SWAP1 POP DUP2 PUSH1 0x6 PUSH1 0x0 PUSH2 0x100 EXP DUP2 SLOAD DUP2 PUSH20 0xFFFFFFFFFFFFFFFFFFFFFFFFFFFFFFFFFFFFFFFF MUL NOT AND SWAP1 DUP4 PUSH20 0xFFFFFFFFFFFFFFFFFFFFFFFFFFFFFFFFFFFFFFFF AND MUL OR SWAP1 SSTORE POP DUP2 PUSH20 0xFFFFFFFFFFFFFFFFFFFFFFFFFFFFFFFFFFFFFFFF AND DUP2 PUSH20 0xFFFFFFFFFFFFFFFFFFFFFFFFFFFFFFFFFFFFFFFF AND PUSH32 0x8BE0079C531659141344CD1FD0A4F28419497F9722A3DAAFE3B4186F6B6457E0 PUSH1 0x40 MLOAD PUSH1 0x40 MLOAD DUP1 SWAP2 SUB SWAP1 LOG3 POP POP JUMP JUMPDEST DUP2 PUSH20 0xFFFFFFFFFFFFFFFFFFFFFFFFFFFFFFFFFFFFFFFF AND DUP4 PUSH20 0xFFFFFFFFFFFFFFFFFFFFFFFFFFFFFFFFFFFFFFFF AND SUB PUSH2 0x1B22 JUMPI PUSH1 0x40 MLOAD PUSH32 0x8C379A000000000000000000000000000000000000000000000000000000000 DUP2 MSTORE PUSH1 0x4 ADD PUSH2 0x1B19 SWAP1 PUSH2 0x367E JUMP JUMPDEST PUSH1 0x40 MLOAD DUP1 SWAP2 SUB SWAP1 REVERT JUMPDEST DUP1 PUSH1 0x5 PUSH1 0x0 DUP6 PUSH20 0xFFFFFFFFFFFFFFFFFFFFFFFFFFFFFFFFFFFFFFFF AND PUSH20 0xFFFFFFFFFFFFFFFFFFFFFFFFFFFFFFFFFFFFFFFF AND DUP2 MSTORE PUSH1 0x20 ADD SWAP1 DUP2 MSTORE PUSH1 0x20 ADD PUSH1 0x0 KECCAK256 PUSH1 0x0 DUP5 PUSH20 0xFFFFFFFFFFFFFFFFFFFFFFFFFFFFFFFFFFFFFFFF AND PUSH20 0xFFFFFFFFFFFFFFFFFFFFFFFFFFFFFFFFFFFFFFFF AND DUP2 MSTORE PUSH1 0x20 ADD SWAP1 DUP2 MSTORE PUSH1 0x20 ADD PUSH1 0x0 KECCAK256 PUSH1 0x0 PUSH2 0x100 EXP DUP2 SLOAD DUP2 PUSH1 0xFF MUL NOT AND SWAP1 DUP4 ISZERO ISZERO MUL OR SWAP1 SSTORE POP DUP2 PUSH20 0xFFFFFFFFFFFFFFFFFFFFFFFFFFFFFFFFFFFFFFFF AND DUP4 PUSH20 0xFFFFFFFFFFFFFFFFFFFFFFFFFFFFFFFFFFFFFFFF AND PUSH32 0x17307EAB39AB6107E8899845AD3D59BD9653F200F220920489CA2B5937696C31 DUP4 PUSH1 0x40 MLOAD PUSH2 0x1C13 SWAP2 SWAP1 PUSH2 0x2475 JUMP JUMPDEST PUSH1 0x40 MLOAD DUP1 SWAP2 SUB SWAP1 LOG3 POP POP POP JUMP JUMPDEST PUSH2 0x1C2B DUP5 DUP5 DUP5 PUSH2 0x14CD JUMP JUMPDEST PUSH2 0x1C37 DUP5 DUP5 DUP5 DUP5 PUSH2 0x1E17 JUMP JUMPDEST PUSH2 0x1C76 JUMPI PUSH1 0x40 MLOAD PUSH32 0x8C379A000000000000000000000000000000000000000000000000000000000 DUP2 MSTORE PUSH1 0x4 ADD PUSH2 0x1C6D SWAP1 PUSH2 0x3710 JUMP JUMPDEST PUSH1 0x40 MLOAD DUP1 SWAP2 SUB SWAP1 REVERT JUMPDEST POP POP POP POP JUMP JUMPDEST PUSH1 0x60 PUSH1 0x40 MLOAD DUP1 PUSH1 0x20 ADD PUSH1 0x40 MSTORE DUP1 PUSH1 0x0 DUP2 MSTORE POP SWAP1 POP SWAP1 JUMP JUMPDEST PUSH1 0x60 PUSH1 0x0 PUSH1 0x1 PUSH2 0x1CA2 DUP5 PUSH2 0x1F9E JUMP JUMPDEST ADD SWAP1 POP PUSH1 0x0 DUP2 PUSH8 0xFFFFFFFFFFFFFFFF DUP2 GT ISZERO PUSH2 0x1CC1 JUMPI PUSH2 0x1CC0 PUSH2 0x293E JUMP JUMPDEST JUMPDEST PUSH1 0x40 MLOAD SWAP1 DUP1 DUP3 MSTORE DUP1 PUSH1 0x1F ADD PUSH1 0x1F NOT AND PUSH1 0x20 ADD DUP3 ADD PUSH1 0x40 MSTORE DUP1 ISZERO PUSH2 0x1CF3 JUMPI DUP2 PUSH1 0x20 ADD PUSH1 0x1 DUP3 MUL DUP1 CALLDATASIZE DUP4 CALLDATACOPY DUP1 DUP3 ADD SWAP2 POP POP SWAP1 POP JUMPDEST POP SWAP1 POP PUSH1 0x0 DUP3 PUSH1 0x20 ADD DUP3 ADD SWAP1 POP JUMPDEST PUSH1 0x1 ISZERO PUSH2 0x1D56 JUMPI DUP1 DUP1 PUSH1 0x1 SWAP1 SUB SWAP2 POP POP PUSH32 0x3031323334353637383961626364656600000000000000000000000000000000 PUSH1 0xA DUP7 MOD BYTE DUP2 MSTORE8 PUSH1 0xA DUP6 DUP2 PUSH2 0x1D4A JUMPI PUSH2 0x1D49 PUSH2 0x30A9 JUMP JUMPDEST JUMPDEST DIV SWAP5 POP PUSH1 0x0 DUP6 SUB PUSH2 0x1D01 JUMPI JUMPDEST DUP2 SWAP4 POP POP POP POP SWAP2 SWAP1 POP JUMP JUMPDEST PUSH1 0x0 DUP1 PUSH20 0xFFFFFFFFFFFFFFFFFFFFFFFFFFFFFFFFFFFFFFFF AND PUSH2 0x1D83 DUP4 PUSH2 0x19B1 JUMP JUMPDEST PUSH20 0xFFFFFFFFFFFFFFFFFFFFFFFFFFFFFFFFFFFFFFFF AND EQ ISZERO SWAP1 POP SWAP2 SWAP1 POP JUMP JUMPDEST POP POP POP POP JUMP JUMPDEST POP POP POP POP JUMP JUMPDEST PUSH1 0x0 DUP1 TIMESTAMP CALLER PUSH1 0x40 MLOAD PUSH1 0x20 ADD PUSH2 0x1DC4 SWAP3 SWAP2 SWAP1 PUSH2 0x3799 JUMP JUMPDEST PUSH1 0x40 MLOAD PUSH1 0x20 DUP2 DUP4 SUB SUB DUP2 MSTORE SWAP1 PUSH1 0x40 MSTORE DUP1 MLOAD SWAP1 PUSH1 0x20 ADD KECCAK256 SWAP1 POP PUSH1 0x0 DUP2 PUSH1 0x0 SHR SWAP1 POP DUP4 DUP2 PUSH2 0x1DF0 SWAP2 SWAP1 PUSH2 0x37C5 JUMP JUMPDEST SWAP3 POP POP POP SWAP2 SWAP1 POP JUMP JUMPDEST PUSH2 0x1E13 DUP3 DUP3 PUSH1 0x40 MLOAD DUP1 PUSH1 0x20 ADD PUSH1 0x40 MSTORE DUP1 PUSH1 0x0 DUP2 MSTORE POP PUSH2 0x20F1 JUMP JUMPDEST POP POP JUMP JUMPDEST PUSH1 0x0 PUSH2 0x1E38 DUP5 PUSH20 0xFFFFFFFFFFFFFFFFFFFFFFFFFFFFFFFFFFFFFFFF AND PUSH2 0x214C JUMP JUMPDEST ISZERO PUSH2 0x1F91 JUMPI DUP4 PUSH20 0xFFFFFFFFFFFFFFFFFFFFFFFFFFFFFFFFFFFFFFFF AND PUSH4 0x150B7A02 PUSH2 0x1E61 PUSH2 0x1377 JUMP JUMPDEST DUP8 DUP7 DUP7 PUSH1 0x40 MLOAD DUP6 PUSH4 0xFFFFFFFF AND PUSH1 0xE0 SHL DUP2 MSTORE PUSH1 0x4 ADD PUSH2 0x1E83 SWAP5 SWAP4 SWAP3 SWAP2 SWAP1 PUSH2 0x384B JUMP JUMPDEST PUSH1 0x20 PUSH1 0x40 MLOAD DUP1 DUP4 SUB DUP2 PUSH1 0x0 DUP8 GAS CALL SWAP3 POP POP POP DUP1 ISZERO PUSH2 0x1EBF JUMPI POP PUSH1 0x40 MLOAD RETURNDATASIZE PUSH1 0x1F NOT PUSH1 0x1F DUP3 ADD AND DUP3 ADD DUP1 PUSH1 0x40 MSTORE POP DUP2 ADD SWAP1 PUSH2 0x1EBC SWAP2 SWAP1 PUSH2 0x38AC JUMP JUMPDEST PUSH1 0x1 JUMPDEST PUSH2 0x1F41 JUMPI RETURNDATASIZE DUP1 PUSH1 0x0 DUP2 EQ PUSH2 0x1EEF JUMPI PUSH1 0x40 MLOAD SWAP2 POP PUSH1 0x1F NOT PUSH1 0x3F RETURNDATASIZE ADD AND DUP3 ADD PUSH1 0x40 MSTORE RETURNDATASIZE DUP3 MSTORE RETURNDATASIZE PUSH1 0x0 PUSH1 0x20 DUP5 ADD RETURNDATACOPY PUSH2 0x1EF4 JUMP JUMPDEST PUSH1 0x60 SWAP2 POP JUMPDEST POP PUSH1 0x0 DUP2 MLOAD SUB PUSH2 0x1F39 JUMPI PUSH1 0x40 MLOAD PUSH32 0x8C379A000000000000000000000000000000000000000000000000000000000 DUP2 MSTORE PUSH1 0x4 ADD PUSH2 0x1F30 SWAP1 PUSH2 0x3710 JUMP JUMPDEST PUSH1 0x40 MLOAD DUP1 SWAP2 SUB SWAP1 REVERT JUMPDEST DUP1 MLOAD DUP2 PUSH1 0x20 ADD REVERT JUMPDEST PUSH4 0x150B7A02 PUSH1 0xE0 SHL PUSH28 0xFFFFFFFFFFFFFFFFFFFFFFFFFFFFFFFFFFFFFFFFFFFFFFFFFFFFFFFF NOT AND DUP2 PUSH28 0xFFFFFFFFFFFFFFFFFFFFFFFFFFFFFFFFFFFFFFFFFFFFFFFFFFFFFFFF NOT AND EQ SWAP2 POP POP PUSH2 0x1F96 JUMP JUMPDEST PUSH1 0x1 SWAP1 POP JUMPDEST SWAP5 SWAP4 POP POP POP POP JUMP JUMPDEST PUSH1 0x0 DUP1 PUSH1 0x0 SWAP1 POP PUSH27 0x184F03E93FF9F4DAA797ED6E38ED64BF6A1F010000000000000000 DUP4 LT PUSH2 0x1FFC JUMPI PUSH27 0x184F03E93FF9F4DAA797ED6E38ED64BF6A1F010000000000000000 DUP4 DUP2 PUSH2 0x1FF2 JUMPI PUSH2 0x1FF1 PUSH2 0x30A9 JUMP JUMPDEST JUMPDEST DIV SWAP3 POP PUSH1 0x40 DUP2 ADD SWAP1 POP JUMPDEST PUSH14 0x4EE2D6D415B85ACEF8100000000 DUP4 LT PUSH2 0x2039 JUMPI PUSH14 0x4EE2D6D415B85ACEF8100000000 DUP4 DUP2 PUSH2 0x202F JUMPI PUSH2 0x202E PUSH2 0x30A9 JUMP JUMPDEST JUMPDEST DIV SWAP3 POP PUSH1 0x20 DUP2 ADD SWAP1 POP JUMPDEST PUSH7 0x2386F26FC10000 DUP4 LT PUSH2 0x2068 JUMPI PUSH7 0x2386F26FC10000 DUP4 DUP2 PUSH2 0x205E JUMPI PUSH2 0x205D PUSH2 0x30A9 JUMP JUMPDEST JUMPDEST DIV SWAP3 POP PUSH1 0x10 DUP2 ADD SWAP1 POP JUMPDEST PUSH4 0x5F5E100 DUP4 LT PUSH2 0x2091 JUMPI PUSH4 0x5F5E100 DUP4 DUP2 PUSH2 0x2087 JUMPI PUSH2 0x2086 PUSH2 0x30A9 JUMP JUMPDEST JUMPDEST DIV SWAP3 POP PUSH1 0x8 DUP2 ADD SWAP1 POP JUMPDEST PUSH2 0x2710 DUP4 LT PUSH2 0x20B6 JUMPI PUSH2 0x2710 DUP4 DUP2 PUSH2 0x20AC JUMPI PUSH2 0x20AB PUSH2 0x30A9 JUMP JUMPDEST JUMPDEST DIV SWAP3 POP PUSH1 0x4 DUP2 ADD SWAP1 POP JUMPDEST PUSH1 0x64 DUP4 LT PUSH2 0x20D9 JUMPI PUSH1 0x64 DUP4 DUP2 PUSH2 0x20CF JUMPI PUSH2 0x20CE PUSH2 0x30A9 JUMP JUMPDEST JUMPDEST DIV SWAP3 POP PUSH1 0x2 DUP2 ADD SWAP1 POP JUMPDEST PUSH1 0xA DUP4 LT PUSH2 0x20E8 JUMPI PUSH1 0x1 DUP2 ADD SWAP1 POP JUMPDEST DUP1 SWAP2 POP POP SWAP2 SWAP1 POP JUMP JUMPDEST PUSH2 0x20FB DUP4 DUP4 PUSH2 0x216F JUMP JUMPDEST PUSH2 0x2108 PUSH1 0x0 DUP5 DUP5 DUP5 PUSH2 0x1E17 JUMP JUMPDEST PUSH2 0x2147 JUMPI PUSH1 0x40 MLOAD PUSH32 0x8C379A000000000000000000000000000000000000000000000000000000000 DUP2 MSTORE PUSH1 0x4 ADD PUSH2 0x213E SWAP1 PUSH2 0x3710 JUMP JUMPDEST PUSH1 0x40 MLOAD DUP1 SWAP2 SUB SWAP1 REVERT JUMPDEST POP POP POP JUMP JUMPDEST PUSH1 0x0 DUP1 DUP3 PUSH20 0xFFFFFFFFFFFFFFFFFFFFFFFFFFFFFFFFFFFFFFFF AND EXTCODESIZE GT SWAP1 POP SWAP2 SWAP1 POP JUMP JUMPDEST PUSH1 0x0 PUSH20 0xFFFFFFFFFFFFFFFFFFFFFFFFFFFFFFFFFFFFFFFF AND DUP3 PUSH20 0xFFFFFFFFFFFFFFFFFFFFFFFFFFFFFFFFFFFFFFFF AND SUB PUSH2 0x21DE JUMPI PUSH1 0x40 MLOAD PUSH32 0x8C379A000000000000000000000000000000000000000000000000000000000 DUP2 MSTORE PUSH1 0x4 ADD PUSH2 0x21D5 SWAP1 PUSH2 0x3925 JUMP JUMPDEST PUSH1 0x40 MLOAD DUP1 SWAP2 SUB SWAP1 REVERT JUMPDEST PUSH2 0x21E7 DUP2 PUSH2 0x1D61 JUMP JUMPDEST ISZERO PUSH2 0x2227 JUMPI PUSH1 0x40 MLOAD PUSH32 0x8C379A000000000000000000000000000000000000000000000000000000000 DUP2 MSTORE PUSH1 0x4 ADD PUSH2 0x221E SWAP1 PUSH2 0x3991 JUMP JUMPDEST PUSH1 0x40 MLOAD DUP1 SWAP2 SUB SWAP1 REVERT JUMPDEST PUSH2 0x2235 PUSH1 0x0 DUP4 DUP4 PUSH1 0x1 PUSH2 0x1DA2 JUMP JUMPDEST PUSH2 0x223E DUP2 PUSH2 0x1D61 JUMP JUMPDEST ISZERO PUSH2 0x227E JUMPI PUSH1 0x40 MLOAD PUSH32 0x8C379A000000000000000000000000000000000000000000000000000000000 DUP2 MSTORE PUSH1 0x4 ADD PUSH2 0x2275 SWAP1 PUSH2 0x3991 JUMP JUMPDEST PUSH1 0x40 MLOAD DUP1 SWAP2 SUB SWAP1 REVERT JUMPDEST PUSH1 0x1 PUSH1 0x3 PUSH1 0x0 DUP5 PUSH20 0xFFFFFFFFFFFFFFFFFFFFFFFFFFFFFFFFFFFFFFFF AND PUSH20 0xFFFFFFFFFFFFFFFFFFFFFFFFFFFFFFFFFFFFFFFF AND DUP2 MSTORE PUSH1 0x20 ADD SWAP1 DUP2 MSTORE PUSH1 0x20 ADD PUSH1 0x0 KECCAK256 PUSH1 0x0 DUP3 DUP3 SLOAD ADD SWAP3 POP POP DUP2 SWAP1 SSTORE POP DUP2 PUSH1 0x2 PUSH1 0x0 DUP4 DUP2 MSTORE PUSH1 0x20 ADD SWAP1 DUP2 MSTORE PUSH1 0x20 ADD PUSH1 0x0 KECCAK256 PUSH1 0x0 PUSH2 0x100 EXP DUP2 SLOAD DUP2 PUSH20 0xFFFFFFFFFFFFFFFFFFFFFFFFFFFFFFFFFFFFFFFF MUL NOT AND SWAP1 DUP4 PUSH20 0xFFFFFFFFFFFFFFFFFFFFFFFFFFFFFFFFFFFFFFFF AND MUL OR SWAP1 SSTORE POP DUP1 DUP3 PUSH20 0xFFFFFFFFFFFFFFFFFFFFFFFFFFFFFFFFFFFFFFFF AND PUSH1 0x0 PUSH20 0xFFFFFFFFFFFFFFFFFFFFFFFFFFFFFFFFFFFFFFFF AND PUSH32 0xDDF252AD1BE2C89B69C2B068FC378DAA952BA7F163C4A11628F55A4DF523B3EF PUSH1 0x40 MLOAD PUSH1 0x40 MLOAD DUP1 SWAP2 SUB SWAP1 LOG4 PUSH2 0x2388 PUSH1 0x0 DUP4 DUP4 PUSH1 0x1 PUSH2 0x1DA8 JUMP JUMPDEST POP POP JUMP JUMPDEST PUSH1 0x40 MLOAD DUP1 PUSH1 0xA0 ADD PUSH1 0x40 MSTORE DUP1 PUSH1 0x60 DUP2 MSTORE PUSH1 0x20 ADD PUSH1 0x0 DUP2 MSTORE PUSH1 0x20 ADD PUSH1 0x0 DUP2 MSTORE PUSH1 0x20 ADD PUSH1 0x0 PUSH1 0xFF AND DUP2 MSTORE PUSH1 0x20 ADD PUSH1 0x0 PUSH1 0xFF AND DUP2 MSTORE POP SWAP1 JUMP JUMPDEST PUSH1 0x0 PUSH1 0x40 MLOAD SWAP1 POP SWAP1 JUMP JUMPDEST PUSH1 0x0 DUP1 REVERT JUMPDEST PUSH1 0x0 DUP1 REVERT JUMPDEST PUSH1 0x0 PUSH32 0xFFFFFFFF00000000000000000000000000000000000000000000000000000000 DUP3 AND SWAP1 POP SWAP2 SWAP1 POP JUMP JUMPDEST PUSH2 0x240A DUP2 PUSH2 0x23D5 JUMP JUMPDEST DUP2 EQ PUSH2 0x2415 JUMPI PUSH1 0x0 DUP1 REVERT JUMPDEST POP JUMP JUMPDEST PUSH1 0x0 DUP2 CALLDATALOAD SWAP1 POP PUSH2 0x2427 DUP2 PUSH2 0x2401 JUMP JUMPDEST SWAP3 SWAP2 POP POP JUMP JUMPDEST PUSH1 0x0 PUSH1 0x20 DUP3 DUP5 SUB SLT ISZERO PUSH2 0x2443 JUMPI PUSH2 0x2442 PUSH2 0x23CB JUMP JUMPDEST JUMPDEST PUSH1 0x0 PUSH2 0x2451 DUP5 DUP3 DUP6 ADD PUSH2 0x2418 JUMP JUMPDEST SWAP2 POP POP SWAP3 SWAP2 POP POP JUMP JUMPDEST PUSH1 0x0 DUP2 ISZERO ISZERO SWAP1 POP SWAP2 SWAP1 POP JUMP JUMPDEST PUSH2 0x246F DUP2 PUSH2 0x245A JUMP JUMPDEST DUP3 MSTORE POP POP JUMP JUMPDEST PUSH1 0x0 PUSH1 0x20 DUP3 ADD SWAP1 POP PUSH2 0x248A PUSH1 0x0 DUP4 ADD DUP5 PUSH2 0x2466 JUMP JUMPDEST SWAP3 SWAP2 POP POP JUMP JUMPDEST PUSH1 0x0 DUP2 SWAP1 POP SWAP2 SWAP1 POP JUMP JUMPDEST PUSH2 0x24A3 DUP2 PUSH2 0x2490 JUMP JUMPDEST DUP2 EQ PUSH2 0x24AE JUMPI PUSH1 0x0 DUP1 REVERT JUMPDEST POP JUMP JUMPDEST PUSH1 0x0 DUP2 CALLDATALOAD SWAP1 POP PUSH2 0x24C0 DUP2 PUSH2 0x249A JUMP JUMPDEST SWAP3 SWAP2 POP POP JUMP JUMPDEST PUSH1 0x0 PUSH1 0x20 DUP3 DUP5 SUB SLT ISZERO PUSH2 0x24DC JUMPI PUSH2 0x24DB PUSH2 0x23CB JUMP JUMPDEST JUMPDEST PUSH1 0x0 PUSH2 0x24EA DUP5 DUP3 DUP6 ADD PUSH2 0x24B1 JUMP JUMPDEST SWAP2 POP POP SWAP3 SWAP2 POP POP JUMP JUMPDEST PUSH1 0x0 DUP2 MLOAD SWAP1 POP SWAP2 SWAP1 POP JUMP JUMPDEST PUSH1 0x0 DUP3 DUP3 MSTORE PUSH1 0x20 DUP3 ADD SWAP1 POP SWAP3 SWAP2 POP POP JUMP JUMPDEST PUSH1 0x0 JUMPDEST DUP4 DUP2 LT ISZERO PUSH2 0x252D JUMPI DUP1 DUP3 ADD MLOAD DUP2 DUP5 ADD MSTORE PUSH1 0x20 DUP2 ADD SWAP1 POP PUSH2 0x2512 JUMP JUMPDEST PUSH1 0x0 DUP5 DUP5 ADD MSTORE POP POP POP POP JUMP JUMPDEST PUSH1 0x0 PUSH1 0x1F NOT PUSH1 0x1F DUP4 ADD AND SWAP1 POP SWAP2 SWAP1 POP JUMP JUMPDEST PUSH1 0x0 PUSH2 0x2555 DUP3 PUSH2 0x24F3 JUMP JUMPDEST PUSH2 0x255F DUP2 DUP6 PUSH2 0x24FE JUMP JUMPDEST SWAP4 POP PUSH2 0x256F DUP2 DUP6 PUSH1 0x20 DUP7 ADD PUSH2 0x250F JUMP JUMPDEST PUSH2 0x2578 DUP2 PUSH2 0x2539 JUMP JUMPDEST DUP5 ADD SWAP2 POP POP SWAP3 SWAP2 POP POP JUMP JUMPDEST PUSH2 0x258C DUP2 PUSH2 0x2490 JUMP JUMPDEST DUP3 MSTORE POP POP JUMP JUMPDEST PUSH1 0x0 PUSH1 0xFF DUP3 AND SWAP1 POP SWAP2 SWAP1 POP JUMP JUMPDEST PUSH2 0x25A8 DUP2 PUSH2 0x2592 JUMP JUMPDEST DUP3 MSTORE POP POP JUMP JUMPDEST PUSH1 0x0 PUSH1 0xA0 DUP3 ADD SWAP1 POP DUP2 DUP2 SUB PUSH1 0x0 DUP4 ADD MSTORE PUSH2 0x25C8 DUP2 DUP9 PUSH2 0x254A JUMP JUMPDEST SWAP1 POP PUSH2 0x25D7 PUSH1 0x20 DUP4 ADD DUP8 PUSH2 0x2583 JUMP JUMPDEST PUSH2 0x25E4 PUSH1 0x40 DUP4 ADD DUP7 PUSH2 0x2583 JUMP JUMPDEST PUSH2 0x25F1 PUSH1 0x60 DUP4 ADD DUP6 PUSH2 0x259F JUMP JUMPDEST PUSH2 0x25FE PUSH1 0x80 DUP4 ADD DUP5 PUSH2 0x259F JUMP JUMPDEST SWAP7 SWAP6 POP POP POP POP POP POP JUMP JUMPDEST PUSH1 0x0 PUSH1 0x20 DUP3 ADD SWAP1 POP DUP2 DUP2 SUB PUSH1 0x0 DUP4 ADD MSTORE PUSH2 0x2622 DUP2 DUP5 PUSH2 0x254A JUMP JUMPDEST SWAP1 POP SWAP3 SWAP2 POP POP JUMP JUMPDEST PUSH1 0x0 PUSH20 0xFFFFFFFFFFFFFFFFFFFFFFFFFFFFFFFFFFFFFFFF DUP3 AND SWAP1 POP SWAP2 SWAP1 POP JUMP JUMPDEST PUSH1 0x0 PUSH2 0x2655 DUP3 PUSH2 0x262A JUMP JUMPDEST SWAP1 POP SWAP2 SWAP1 POP JUMP JUMPDEST PUSH2 0x2665 DUP2 PUSH2 0x264A JUMP JUMPDEST DUP3 MSTORE POP POP JUMP JUMPDEST PUSH1 0x0 PUSH1 0x20 DUP3 ADD SWAP1 POP PUSH2 0x2680 PUSH1 0x0 DUP4 ADD DUP5 PUSH2 0x265C JUMP JUMPDEST SWAP3 SWAP2 POP POP JUMP JUMPDEST PUSH2 0x268F DUP2 PUSH2 0x264A JUMP JUMPDEST DUP2 EQ PUSH2 0x269A JUMPI PUSH1 0x0 DUP1 REVERT JUMPDEST POP JUMP JUMPDEST PUSH1 0x0 DUP2 CALLDATALOAD SWAP1 POP PUSH2 0x26AC DUP2 PUSH2 0x2686 JUMP JUMPDEST SWAP3 SWAP2 POP POP JUMP JUMPDEST PUSH1 0x0 DUP1 PUSH1 0x40 DUP4 DUP6 SUB SLT ISZERO PUSH2 0x26C9 JUMPI PUSH2 0x26C8 PUSH2 0x23CB JUMP JUMPDEST JUMPDEST PUSH1 0x0 PUSH2 0x26D7 DUP6 DUP3 DUP7 ADD PUSH2 0x269D JUMP JUMPDEST SWAP3 POP POP PUSH1 0x20 PUSH2 0x26E8 DUP6 DUP3 DUP7 ADD PUSH2 0x24B1 JUMP JUMPDEST SWAP2 POP POP SWAP3 POP SWAP3 SWAP1 POP JUMP JUMPDEST PUSH1 0x0 PUSH1 0x20 DUP3 DUP5 SUB SLT ISZERO PUSH2 0x2708 JUMPI PUSH2 0x2707 PUSH2 0x23CB JUMP JUMPDEST JUMPDEST PUSH1 0x0 PUSH2 0x2716 DUP5 DUP3 DUP6 ADD PUSH2 0x269D JUMP JUMPDEST SWAP2 POP POP SWAP3 SWAP2 POP POP JUMP JUMPDEST PUSH1 0x0 DUP2 MLOAD SWAP1 POP SWAP2 SWAP1 POP JUMP JUMPDEST PUSH1 0x0 DUP3 DUP3 MSTORE PUSH1 0x20 DUP3 ADD SWAP1 POP SWAP3 SWAP2 POP POP JUMP JUMPDEST PUSH1 0x0 DUP2 SWAP1 POP PUSH1 0x20 DUP3 ADD SWAP1 POP SWAP2 SWAP1 POP JUMP JUMPDEST PUSH1 0x0 DUP3 DUP3 MSTORE PUSH1 0x20 DUP3 ADD SWAP1 POP SWAP3 SWAP2 POP POP JUMP JUMPDEST PUSH1 0x0 PUSH2 0x2767 DUP3 PUSH2 0x24F3 JUMP JUMPDEST PUSH2 0x2771 DUP2 DUP6 PUSH2 0x274B JUMP JUMPDEST SWAP4 POP PUSH2 0x2781 DUP2 DUP6 PUSH1 0x20 DUP7 ADD PUSH2 0x250F JUMP JUMPDEST PUSH2 0x278A DUP2 PUSH2 0x2539 JUMP JUMPDEST DUP5 ADD SWAP2 POP POP SWAP3 SWAP2 POP POP JUMP JUMPDEST PUSH2 0x279E DUP2 PUSH2 0x2490 JUMP JUMPDEST DUP3 MSTORE POP POP JUMP JUMPDEST PUSH2 0x27AD DUP2 PUSH2 0x2592 JUMP JUMPDEST DUP3 MSTORE POP POP JUMP JUMPDEST PUSH1 0x0 PUSH1 0xA0 DUP4 ADD PUSH1 0x0 DUP4 ADD MLOAD DUP5 DUP3 SUB PUSH1 0x0 DUP7 ADD MSTORE PUSH2 0x27D0 DUP3 DUP3 PUSH2 0x275C JUMP JUMPDEST SWAP2 POP POP PUSH1 0x20 DUP4 ADD MLOAD PUSH2 0x27E5 PUSH1 0x20 DUP7 ADD DUP3 PUSH2 0x2795 JUMP JUMPDEST POP PUSH1 0x40 DUP4 ADD MLOAD PUSH2 0x27F8 PUSH1 0x40 DUP7 ADD DUP3 PUSH2 0x2795 JUMP JUMPDEST POP PUSH1 0x60 DUP4 ADD MLOAD PUSH2 0x280B PUSH1 0x60 DUP7 ADD DUP3 PUSH2 0x27A4 JUMP JUMPDEST POP PUSH1 0x80 DUP4 ADD MLOAD PUSH2 0x281E PUSH1 0x80 DUP7 ADD DUP3 PUSH2 0x27A4 JUMP JUMPDEST POP DUP1 SWAP2 POP POP SWAP3 SWAP2 POP POP JUMP JUMPDEST PUSH1 0x0 PUSH2 0x2835 DUP4 DUP4 PUSH2 0x27B3 JUMP JUMPDEST SWAP1 POP SWAP3 SWAP2 POP POP JUMP JUMPDEST PUSH1 0x0 PUSH1 0x20 DUP3 ADD SWAP1 POP SWAP2 SWAP1 POP JUMP JUMPDEST PUSH1 0x0 PUSH2 0x2855 DUP3 PUSH2 0x271F JUMP JUMPDEST PUSH2 0x285F DUP2 DUP6 PUSH2 0x272A JUMP JUMPDEST SWAP4 POP DUP4 PUSH1 0x20 DUP3 MUL DUP6 ADD PUSH2 0x2871 DUP6 PUSH2 0x273B JUMP JUMPDEST DUP1 PUSH1 0x0 JUMPDEST DUP6 DUP2 LT ISZERO PUSH2 0x28AD JUMPI DUP5 DUP5 SUB DUP10 MSTORE DUP2 MLOAD PUSH2 0x288E DUP6 DUP3 PUSH2 0x2829 JUMP JUMPDEST SWAP5 POP PUSH2 0x2899 DUP4 PUSH2 0x283D JUMP JUMPDEST SWAP3 POP PUSH1 0x20 DUP11 ADD SWAP10 POP POP PUSH1 0x1 DUP2 ADD SWAP1 POP PUSH2 0x2875 JUMP JUMPDEST POP DUP3 SWAP8 POP DUP8 SWAP6 POP POP POP POP POP POP SWAP3 SWAP2 POP POP JUMP JUMPDEST PUSH1 0x0 PUSH1 0x20 DUP3 ADD SWAP1 POP DUP2 DUP2 SUB PUSH1 0x0 DUP4 ADD MSTORE PUSH2 0x28D9 DUP2 DUP5 PUSH2 0x284A JUMP JUMPDEST SWAP1 POP SWAP3 SWAP2 POP POP JUMP JUMPDEST PUSH1 0x0 DUP1 PUSH1 0x0 PUSH1 0x60 DUP5 DUP7 SUB SLT ISZERO PUSH2 0x28FA JUMPI PUSH2 0x28F9 PUSH2 0x23CB JUMP JUMPDEST JUMPDEST PUSH1 0x0 PUSH2 0x2908 DUP7 DUP3 DUP8 ADD PUSH2 0x269D JUMP JUMPDEST SWAP4 POP POP PUSH1 0x20 PUSH2 0x2919 DUP7 DUP3 DUP8 ADD PUSH2 0x269D JUMP JUMPDEST SWAP3 POP POP PUSH1 0x40 PUSH2 0x292A DUP7 DUP3 DUP8 ADD PUSH2 0x24B1 JUMP JUMPDEST SWAP2 POP POP SWAP3 POP SWAP3 POP SWAP3 JUMP JUMPDEST PUSH1 0x0 DUP1 REVERT JUMPDEST PUSH1 0x0 DUP1 REVERT JUMPDEST PUSH32 0x4E487B7100000000000000000000000000000000000000000000000000000000 PUSH1 0x0 MSTORE PUSH1 0x41 PUSH1 0x4 MSTORE PUSH1 0x24 PUSH1 0x0 REVERT JUMPDEST PUSH2 0x2976 DUP3 PUSH2 0x2539 JUMP JUMPDEST DUP2 ADD DUP2 DUP2 LT PUSH8 0xFFFFFFFFFFFFFFFF DUP3 GT OR ISZERO PUSH2 0x2995 JUMPI PUSH2 0x2994 PUSH2 0x293E JUMP JUMPDEST JUMPDEST DUP1 PUSH1 0x40 MSTORE POP POP POP JUMP JUMPDEST PUSH1 0x0 PUSH2 0x29A8 PUSH2 0x23C1 JUMP JUMPDEST SWAP1 POP PUSH2 0x29B4 DUP3 DUP3 PUSH2 0x296D JUMP JUMPDEST SWAP2 SWAP1 POP JUMP JUMPDEST PUSH1 0x0 PUSH8 0xFFFFFFFFFFFFFFFF DUP3 GT ISZERO PUSH2 0x29D4 JUMPI PUSH2 0x29D3 PUSH2 0x293E JUMP JUMPDEST JUMPDEST PUSH2 0x29DD DUP3 PUSH2 0x2539 JUMP JUMPDEST SWAP1 POP PUSH1 0x20 DUP2 ADD SWAP1 POP SWAP2 SWAP1 POP JUMP JUMPDEST DUP3 DUP2 DUP4 CALLDATACOPY PUSH1 0x0 DUP4 DUP4 ADD MSTORE POP POP POP JUMP JUMPDEST PUSH1 0x0 PUSH2 0x2A0C PUSH2 0x2A07 DUP5 PUSH2 0x29B9 JUMP JUMPDEST PUSH2 0x299E JUMP JUMPDEST SWAP1 POP DUP3 DUP2 MSTORE PUSH1 0x20 DUP2 ADD DUP5 DUP5 DUP5 ADD GT ISZERO PUSH2 0x2A28 JUMPI PUSH2 0x2A27 PUSH2 0x2939 JUMP JUMPDEST JUMPDEST PUSH2 0x2A33 DUP5 DUP3 DUP6 PUSH2 0x29EA JUMP JUMPDEST POP SWAP4 SWAP3 POP POP POP JUMP JUMPDEST PUSH1 0x0 DUP3 PUSH1 0x1F DUP4 ADD SLT PUSH2 0x2A50 JUMPI PUSH2 0x2A4F PUSH2 0x2934 JUMP JUMPDEST JUMPDEST DUP2 CALLDATALOAD PUSH2 0x2A60 DUP5 DUP3 PUSH1 0x20 DUP7 ADD PUSH2 0x29F9 JUMP JUMPDEST SWAP2 POP POP SWAP3 SWAP2 POP POP JUMP JUMPDEST PUSH1 0x0 PUSH1 0x20 DUP3 DUP5 SUB SLT ISZERO PUSH2 0x2A7F JUMPI PUSH2 0x2A7E PUSH2 0x23CB JUMP JUMPDEST JUMPDEST PUSH1 0x0 DUP3 ADD CALLDATALOAD PUSH8 0xFFFFFFFFFFFFFFFF DUP2 GT ISZERO PUSH2 0x2A9D JUMPI PUSH2 0x2A9C PUSH2 0x23D0 JUMP JUMPDEST JUMPDEST PUSH2 0x2AA9 DUP5 DUP3 DUP6 ADD PUSH2 0x2A3B JUMP JUMPDEST SWAP2 POP POP SWAP3 SWAP2 POP POP JUMP JUMPDEST PUSH1 0x0 PUSH1 0x20 DUP3 ADD SWAP1 POP PUSH2 0x2AC7 PUSH1 0x0 DUP4 ADD DUP5 PUSH2 0x2583 JUMP JUMPDEST SWAP3 SWAP2 POP POP JUMP JUMPDEST PUSH1 0x0 PUSH1 0x40 DUP3 ADD SWAP1 POP PUSH2 0x2AE2 PUSH1 0x0 DUP4 ADD DUP6 PUSH2 0x265C JUMP JUMPDEST PUSH2 0x2AEF PUSH1 0x20 DUP4 ADD DUP5 PUSH2 0x2583 JUMP JUMPDEST SWAP4 SWAP3 POP POP POP JUMP JUMPDEST PUSH2 0x2AFF DUP2 PUSH2 0x245A JUMP JUMPDEST DUP2 EQ PUSH2 0x2B0A JUMPI PUSH1 0x0 DUP1 REVERT JUMPDEST POP JUMP JUMPDEST PUSH1 0x0 DUP2 CALLDATALOAD SWAP1 POP PUSH2 0x2B1C DUP2 PUSH2 0x2AF6 JUMP JUMPDEST SWAP3 SWAP2 POP POP JUMP JUMPDEST PUSH1 0x0 DUP1 PUSH1 0x40 DUP4 DUP6 SUB SLT ISZERO PUSH2 0x2B39 JUMPI PUSH2 0x2B38 PUSH2 0x23CB JUMP JUMPDEST JUMPDEST PUSH1 0x0 PUSH2 0x2B47 DUP6 DUP3 DUP7 ADD PUSH2 0x269D JUMP JUMPDEST SWAP3 POP POP PUSH1 0x20 PUSH2 0x2B58 DUP6 DUP3 DUP7 ADD PUSH2 0x2B0D JUMP JUMPDEST SWAP2 POP POP SWAP3 POP SWAP3 SWAP1 POP JUMP JUMPDEST PUSH1 0x0 PUSH8 0xFFFFFFFFFFFFFFFF DUP3 GT ISZERO PUSH2 0x2B7D JUMPI PUSH2 0x2B7C PUSH2 0x293E JUMP JUMPDEST JUMPDEST PUSH2 0x2B86 DUP3 PUSH2 0x2539 JUMP JUMPDEST SWAP1 POP PUSH1 0x20 DUP2 ADD SWAP1 POP SWAP2 SWAP1 POP JUMP JUMPDEST PUSH1 0x0 PUSH2 0x2BA6 PUSH2 0x2BA1 DUP5 PUSH2 0x2B62 JUMP JUMPDEST PUSH2 0x299E JUMP JUMPDEST SWAP1 POP DUP3 DUP2 MSTORE PUSH1 0x20 DUP2 ADD DUP5 DUP5 DUP5 ADD GT ISZERO PUSH2 0x2BC2 JUMPI PUSH2 0x2BC1 PUSH2 0x2939 JUMP JUMPDEST JUMPDEST PUSH2 0x2BCD DUP5 DUP3 DUP6 PUSH2 0x29EA JUMP JUMPDEST POP SWAP4 SWAP3 POP POP POP JUMP JUMPDEST PUSH1 0x0 DUP3 PUSH1 0x1F DUP4 ADD SLT PUSH2 0x2BEA JUMPI PUSH2 0x2BE9 PUSH2 0x2934 JUMP JUMPDEST JUMPDEST DUP2 CALLDATALOAD PUSH2 0x2BFA DUP5 DUP3 PUSH1 0x20 DUP7 ADD PUSH2 0x2B93 JUMP JUMPDEST SWAP2 POP POP SWAP3 SWAP2 POP POP JUMP JUMPDEST PUSH1 0x0 DUP1 PUSH1 0x0 DUP1 PUSH1 0x80 DUP6 DUP8 SUB SLT ISZERO PUSH2 0x2C1D JUMPI PUSH2 0x2C1C PUSH2 0x23CB JUMP JUMPDEST JUMPDEST PUSH1 0x0 PUSH2 0x2C2B DUP8 DUP3 DUP9 ADD PUSH2 0x269D JUMP JUMPDEST SWAP5 POP POP PUSH1 0x20 PUSH2 0x2C3C DUP8 DUP3 DUP9 ADD PUSH2 0x269D JUMP JUMPDEST SWAP4 POP POP PUSH1 0x40 PUSH2 0x2C4D DUP8 DUP3 DUP9 ADD PUSH2 0x24B1 JUMP JUMPDEST SWAP3 POP POP PUSH1 0x60 DUP6 ADD CALLDATALOAD PUSH8 0xFFFFFFFFFFFFFFFF DUP2 GT ISZERO PUSH2 0x2C6E JUMPI PUSH2 0x2C6D PUSH2 0x23D0 JUMP JUMPDEST JUMPDEST PUSH2 0x2C7A DUP8 DUP3 DUP9 ADD PUSH2 0x2BD5 JUMP JUMPDEST SWAP2 POP POP SWAP3 SWAP6 SWAP2 SWAP5 POP SWAP3 POP JUMP JUMPDEST PUSH1 0x0 DUP1 PUSH1 0x40 DUP4 DUP6 SUB SLT ISZERO PUSH2 0x2C9D JUMPI PUSH2 0x2C9C PUSH2 0x23CB JUMP JUMPDEST JUMPDEST PUSH1 0x0 PUSH2 0x2CAB DUP6 DUP3 DUP7 ADD PUSH2 0x269D JUMP JUMPDEST SWAP3 POP POP PUSH1 0x20 PUSH2 0x2CBC DUP6 DUP3 DUP7 ADD PUSH2 0x269D JUMP JUMPDEST SWAP2 POP POP SWAP3 POP SWAP3 SWAP1 POP JUMP JUMPDEST PUSH32 0x4E487B7100000000000000000000000000000000000000000000000000000000 PUSH1 0x0 MSTORE PUSH1 0x22 PUSH1 0x4 MSTORE PUSH1 0x24 PUSH1 0x0 REVERT JUMPDEST PUSH1 0x0 PUSH1 0x2 DUP3 DIV SWAP1 POP PUSH1 0x1 DUP3 AND DUP1 PUSH2 0x2D0D JUMPI PUSH1 0x7F DUP3 AND SWAP2 POP JUMPDEST PUSH1 0x20 DUP3 LT DUP2 SUB PUSH2 0x2D20 JUMPI PUSH2 0x2D1F PUSH2 0x2CC6 JUMP JUMPDEST JUMPDEST POP SWAP2 SWAP1 POP JUMP JUMPDEST PUSH32 0x4552433732313A20617070726F76616C20746F2063757272656E74206F776E65 PUSH1 0x0 DUP3 ADD MSTORE PUSH32 0x7200000000000000000000000000000000000000000000000000000000000000 PUSH1 0x20 DUP3 ADD MSTORE POP JUMP JUMPDEST PUSH1 0x0 PUSH2 0x2D82 PUSH1 0x21 DUP4 PUSH2 0x24FE JUMP JUMPDEST SWAP2 POP PUSH2 0x2D8D DUP3 PUSH2 0x2D26 JUMP JUMPDEST PUSH1 0x40 DUP3 ADD SWAP1 POP SWAP2 SWAP1 POP JUMP JUMPDEST PUSH1 0x0 PUSH1 0x20 DUP3 ADD SWAP1 POP DUP2 DUP2 SUB PUSH1 0x0 DUP4 ADD MSTORE PUSH2 0x2DB1 DUP2 PUSH2 0x2D75 JUMP JUMPDEST SWAP1 POP SWAP2 SWAP1 POP JUMP JUMPDEST PUSH32 0x4552433732313A20617070726F76652063616C6C6572206973206E6F7420746F PUSH1 0x0 DUP3 ADD MSTORE PUSH32 0x6B656E206F776E6572206F7220617070726F76656420666F7220616C6C000000 PUSH1 0x20 DUP3 ADD MSTORE POP JUMP JUMPDEST PUSH1 0x0 PUSH2 0x2E14 PUSH1 0x3D DUP4 PUSH2 0x24FE JUMP JUMPDEST SWAP2 POP PUSH2 0x2E1F DUP3 PUSH2 0x2DB8 JUMP JUMPDEST PUSH1 0x40 DUP3 ADD SWAP1 POP SWAP2 SWAP1 POP JUMP JUMPDEST PUSH1 0x0 PUSH1 0x20 DUP3 ADD SWAP1 POP DUP2 DUP2 SUB PUSH1 0x0 DUP4 ADD MSTORE PUSH2 0x2E43 DUP2 PUSH2 0x2E07 JUMP JUMPDEST SWAP1 POP SWAP2 SWAP1 POP JUMP JUMPDEST PUSH32 0x4E487B7100000000000000000000000000000000000000000000000000000000 PUSH1 0x0 MSTORE PUSH1 0x32 PUSH1 0x4 MSTORE PUSH1 0x24 PUSH1 0x0 REVERT JUMPDEST PUSH32 0x4E487B7100000000000000000000000000000000000000000000000000000000 PUSH1 0x0 MSTORE PUSH1 0x11 PUSH1 0x4 MSTORE PUSH1 0x24 PUSH1 0x0 REVERT JUMPDEST PUSH1 0x0 PUSH2 0x2EB3 DUP3 PUSH2 0x2592 JUMP JUMPDEST SWAP2 POP PUSH1 0xFF DUP3 SUB PUSH2 0x2EC6 JUMPI PUSH2 0x2EC5 PUSH2 0x2E79 JUMP JUMPDEST JUMPDEST PUSH1 0x1 DUP3 ADD SWAP1 POP SWAP2 SWAP1 POP JUMP JUMPDEST PUSH1 0x0 PUSH2 0x2EDC DUP3 PUSH2 0x2490 JUMP JUMPDEST SWAP2 POP PUSH32 0xFFFFFFFFFFFFFFFFFFFFFFFFFFFFFFFFFFFFFFFFFFFFFFFFFFFFFFFFFFFFFFFF DUP3 SUB PUSH2 0x2F0E JUMPI PUSH2 0x2F0D PUSH2 0x2E79 JUMP JUMPDEST JUMPDEST PUSH1 0x1 DUP3 ADD SWAP1 POP SWAP2 SWAP1 POP JUMP JUMPDEST PUSH32 0x4552433732313A2063616C6C6572206973206E6F7420746F6B656E206F776E65 PUSH1 0x0 DUP3 ADD MSTORE PUSH32 0x72206F7220617070726F76656400000000000000000000000000000000000000 PUSH1 0x20 DUP3 ADD MSTORE POP JUMP JUMPDEST PUSH1 0x0 PUSH2 0x2F75 PUSH1 0x2D DUP4 PUSH2 0x24FE JUMP JUMPDEST SWAP2 POP PUSH2 0x2F80 DUP3 PUSH2 0x2F19 JUMP JUMPDEST PUSH1 0x40 DUP3 ADD SWAP1 POP SWAP2 SWAP1 POP JUMP JUMPDEST PUSH1 0x0 PUSH1 0x20 DUP3 ADD SWAP1 POP DUP2 DUP2 SUB PUSH1 0x0 DUP4 ADD MSTORE PUSH2 0x2FA4 DUP2 PUSH2 0x2F68 JUMP JUMPDEST SWAP1 POP SWAP2 SWAP1 POP JUMP JUMPDEST PUSH32 0x4552433732313A20696E76616C696420746F6B656E2049440000000000000000 PUSH1 0x0 DUP3 ADD MSTORE POP JUMP JUMPDEST PUSH1 0x0 PUSH2 0x2FE1 PUSH1 0x18 DUP4 PUSH2 0x24FE JUMP JUMPDEST SWAP2 POP PUSH2 0x2FEC DUP3 PUSH2 0x2FAB JUMP JUMPDEST PUSH1 0x20 DUP3 ADD SWAP1 POP SWAP2 SWAP1 POP JUMP JUMPDEST PUSH1 0x0 PUSH1 0x20 DUP3 ADD SWAP1 POP DUP2 DUP2 SUB PUSH1 0x0 DUP4 ADD MSTORE PUSH2 0x3010 DUP2 PUSH2 0x2FD4 JUMP JUMPDEST SWAP1 POP SWAP2 SWAP1 POP JUMP JUMPDEST PUSH32 0x4552433732313A2061646472657373207A65726F206973206E6F742061207661 PUSH1 0x0 DUP3 ADD MSTORE PUSH32 0x6C6964206F776E65720000000000000000000000000000000000000000000000 PUSH1 0x20 DUP3 ADD MSTORE POP JUMP JUMPDEST PUSH1 0x0 PUSH2 0x3073 PUSH1 0x29 DUP4 PUSH2 0x24FE JUMP JUMPDEST SWAP2 POP PUSH2 0x307E DUP3 PUSH2 0x3017 JUMP JUMPDEST PUSH1 0x40 DUP3 ADD SWAP1 POP SWAP2 SWAP1 POP JUMP JUMPDEST PUSH1 0x0 PUSH1 0x20 DUP3 ADD SWAP1 POP DUP2 DUP2 SUB PUSH1 0x0 DUP4 ADD MSTORE PUSH2 0x30A2 DUP2 PUSH2 0x3066 JUMP JUMPDEST SWAP1 POP SWAP2 SWAP1 POP JUMP JUMPDEST PUSH32 0x4E487B7100000000000000000000000000000000000000000000000000000000 PUSH1 0x0 MSTORE PUSH1 0x12 PUSH1 0x4 MSTORE PUSH1 0x24 PUSH1 0x0 REVERT JUMPDEST PUSH1 0x0 PUSH2 0x30E3 DUP3 PUSH2 0x2490 JUMP JUMPDEST SWAP2 POP PUSH2 0x30EE DUP4 PUSH2 0x2490 JUMP JUMPDEST SWAP3 POP DUP3 PUSH2 0x30FE JUMPI PUSH2 0x30FD PUSH2 0x30A9 JUMP JUMPDEST JUMPDEST DUP3 DUP3 DIV SWAP1 POP SWAP3 SWAP2 POP POP JUMP JUMPDEST PUSH1 0x0 DUP2 SWAP1 POP SWAP3 SWAP2 POP POP JUMP JUMPDEST PUSH1 0x0 PUSH2 0x311F DUP3 PUSH2 0x24F3 JUMP JUMPDEST PUSH2 0x3129 DUP2 DUP6 PUSH2 0x3109 JUMP JUMPDEST SWAP4 POP PUSH2 0x3139 DUP2 DUP6 PUSH1 0x20 DUP7 ADD PUSH2 0x250F JUMP JUMPDEST DUP1 DUP5 ADD SWAP2 POP POP SWAP3 SWAP2 POP POP JUMP JUMPDEST PUSH1 0x0 PUSH2 0x3151 DUP3 DUP6 PUSH2 0x3114 JUMP JUMPDEST SWAP2 POP PUSH2 0x315D DUP3 DUP5 PUSH2 0x3114 JUMP JUMPDEST SWAP2 POP DUP2 SWAP1 POP SWAP4 SWAP3 POP POP POP JUMP JUMPDEST PUSH32 0x4F776E61626C653A206E6577206F776E657220697320746865207A65726F2061 PUSH1 0x0 DUP3 ADD MSTORE PUSH32 0x6464726573730000000000000000000000000000000000000000000000000000 PUSH1 0x20 DUP3 ADD MSTORE POP JUMP JUMPDEST PUSH1 0x0 PUSH2 0x31C5 PUSH1 0x26 DUP4 PUSH2 0x24FE JUMP JUMPDEST SWAP2 POP PUSH2 0x31D0 DUP3 PUSH2 0x3169 JUMP JUMPDEST PUSH1 0x40 DUP3 ADD SWAP1 POP SWAP2 SWAP1 POP JUMP JUMPDEST PUSH1 0x0 PUSH1 0x20 DUP3 ADD SWAP1 POP DUP2 DUP2 SUB PUSH1 0x0 DUP4 ADD MSTORE PUSH2 0x31F4 DUP2 PUSH2 0x31B8 JUMP JUMPDEST SWAP1 POP SWAP2 SWAP1 POP JUMP JUMPDEST PUSH32 0x4552433732313A207472616E736665722066726F6D20696E636F727265637420 PUSH1 0x0 DUP3 ADD MSTORE PUSH32 0x6F776E6572000000000000000000000000000000000000000000000000000000 PUSH1 0x20 DUP3 ADD MSTORE POP JUMP JUMPDEST PUSH1 0x0 PUSH2 0x3257 PUSH1 0x25 DUP4 PUSH2 0x24FE JUMP JUMPDEST SWAP2 POP PUSH2 0x3262 DUP3 PUSH2 0x31FB JUMP JUMPDEST PUSH1 0x40 DUP3 ADD SWAP1 POP SWAP2 SWAP1 POP JUMP JUMPDEST PUSH1 0x0 PUSH1 0x20 DUP3 ADD SWAP1 POP DUP2 DUP2 SUB PUSH1 0x0 DUP4 ADD MSTORE PUSH2 0x3286 DUP2 PUSH2 0x324A JUMP JUMPDEST SWAP1 POP SWAP2 SWAP1 POP JUMP JUMPDEST PUSH32 0x4552433732313A207472616E7366657220746F20746865207A65726F20616464 PUSH1 0x0 DUP3 ADD MSTORE PUSH32 0x7265737300000000000000000000000000000000000000000000000000000000 PUSH1 0x20 DUP3 ADD MSTORE POP JUMP JUMPDEST PUSH1 0x0 PUSH2 0x32E9 PUSH1 0x24 DUP4 PUSH2 0x24FE JUMP JUMPDEST SWAP2 POP PUSH2 0x32F4 DUP3 PUSH2 0x328D JUMP JUMPDEST PUSH1 0x40 DUP3 ADD SWAP1 POP SWAP2 SWAP1 POP JUMP JUMPDEST PUSH1 0x0 PUSH1 0x20 DUP3 ADD SWAP1 POP DUP2 DUP2 SUB PUSH1 0x0 DUP4 ADD MSTORE PUSH2 0x3318 DUP2 PUSH2 0x32DC JUMP JUMPDEST SWAP1 POP SWAP2 SWAP1 POP JUMP JUMPDEST PUSH1 0x0 DUP2 SWAP1 POP DUP2 PUSH1 0x0 MSTORE PUSH1 0x20 PUSH1 0x0 KECCAK256 SWAP1 POP SWAP2 SWAP1 POP JUMP JUMPDEST PUSH1 0x0 PUSH1 0x20 PUSH1 0x1F DUP4 ADD DIV SWAP1 POP SWAP2 SWAP1 POP JUMP JUMPDEST PUSH1 0x0 DUP3 DUP3 SHL SWAP1 POP SWAP3 SWAP2 POP POP JUMP JUMPDEST PUSH1 0x0 PUSH1 0x8 DUP4 MUL PUSH2 0x3381 PUSH32 0xFFFFFFFFFFFFFFFFFFFFFFFFFFFFFFFFFFFFFFFFFFFFFFFFFFFFFFFFFFFFFFFF DUP3 PUSH2 0x3344 JUMP JUMPDEST PUSH2 0x338B DUP7 DUP4 PUSH2 0x3344 JUMP JUMPDEST SWAP6 POP DUP1 NOT DUP5 AND SWAP4 POP DUP1 DUP7 AND DUP5 OR SWAP3 POP POP POP SWAP4 SWAP3 POP POP POP JUMP JUMPDEST PUSH1 0x0 DUP2 SWAP1 POP SWAP2 SWAP1 POP JUMP JUMPDEST PUSH1 0x0 PUSH2 0x33C8 PUSH2 0x33C3 PUSH2 0x33BE DUP5 PUSH2 0x2490 JUMP JUMPDEST PUSH2 0x33A3 JUMP JUMPDEST PUSH2 0x2490 JUMP JUMPDEST SWAP1 POP SWAP2 SWAP1 POP JUMP JUMPDEST PUSH1 0x0 DUP2 SWAP1 POP SWAP2 SWAP1 POP JUMP JUMPDEST PUSH2 0x33E2 DUP4 PUSH2 0x33AD JUMP JUMPDEST PUSH2 0x33F6 PUSH2 0x33EE DUP3 PUSH2 0x33CF JUMP JUMPDEST DUP5 DUP5 SLOAD PUSH2 0x3351 JUMP JUMPDEST DUP3 SSTORE POP POP POP POP JUMP JUMPDEST PUSH1 0x0 SWAP1 JUMP JUMPDEST PUSH2 0x340B PUSH2 0x33FE JUMP JUMPDEST PUSH2 0x3416 DUP2 DUP5 DUP5 PUSH2 0x33D9 JUMP JUMPDEST POP POP POP JUMP JUMPDEST JUMPDEST DUP2 DUP2 LT ISZERO PUSH2 0x343A JUMPI PUSH2 0x342F PUSH1 0x0 DUP3 PUSH2 0x3403 JUMP JUMPDEST PUSH1 0x1 DUP2 ADD SWAP1 POP PUSH2 0x341C JUMP JUMPDEST POP POP JUMP JUMPDEST PUSH1 0x1F DUP3 GT ISZERO PUSH2 0x347F JUMPI PUSH2 0x3450 DUP2 PUSH2 0x331F JUMP JUMPDEST PUSH2 0x3459 DUP5 PUSH2 0x3334 JUMP JUMPDEST DUP2 ADD PUSH1 0x20 DUP6 LT ISZERO PUSH2 0x3468 JUMPI DUP2 SWAP1 POP JUMPDEST PUSH2 0x347C PUSH2 0x3474 DUP6 PUSH2 0x3334 JUMP JUMPDEST DUP4 ADD DUP3 PUSH2 0x341B JUMP JUMPDEST POP POP JUMPDEST POP POP POP JUMP JUMPDEST PUSH1 0x0 DUP3 DUP3 SHR SWAP1 POP SWAP3 SWAP2 POP POP JUMP JUMPDEST PUSH1 0x0 PUSH2 0x34A2 PUSH1 0x0 NOT DUP5 PUSH1 0x8 MUL PUSH2 0x3484 JUMP JUMPDEST NOT DUP1 DUP4 AND SWAP2 POP POP SWAP3 SWAP2 POP POP JUMP JUMPDEST PUSH1 0x0 PUSH2 0x34BB DUP4 DUP4 PUSH2 0x3491 JUMP JUMPDEST SWAP2 POP DUP3 PUSH1 0x2 MUL DUP3 OR SWAP1 POP SWAP3 SWAP2 POP POP JUMP JUMPDEST PUSH2 0x34D4 DUP3 PUSH2 0x24F3 JUMP JUMPDEST PUSH8 0xFFFFFFFFFFFFFFFF DUP2 GT ISZERO PUSH2 0x34ED JUMPI PUSH2 0x34EC PUSH2 0x293E JUMP JUMPDEST JUMPDEST PUSH2 0x34F7 DUP3 SLOAD PUSH2 0x2CF5 JUMP JUMPDEST PUSH2 0x3502 DUP3 DUP3 DUP6 PUSH2 0x343E JUMP JUMPDEST PUSH1 0x0 PUSH1 0x20 SWAP1 POP PUSH1 0x1F DUP4 GT PUSH1 0x1 DUP2 EQ PUSH2 0x3535 JUMPI PUSH1 0x0 DUP5 ISZERO PUSH2 0x3523 JUMPI DUP3 DUP8 ADD MLOAD SWAP1 POP JUMPDEST PUSH2 0x352D DUP6 DUP3 PUSH2 0x34AF JUMP JUMPDEST DUP7 SSTORE POP PUSH2 0x3595 JUMP JUMPDEST PUSH1 0x1F NOT DUP5 AND PUSH2 0x3543 DUP7 PUSH2 0x331F JUMP JUMPDEST PUSH1 0x0 JUMPDEST DUP3 DUP2 LT ISZERO PUSH2 0x356B JUMPI DUP5 DUP10 ADD MLOAD DUP3 SSTORE PUSH1 0x1 DUP3 ADD SWAP2 POP PUSH1 0x20 DUP6 ADD SWAP5 POP PUSH1 0x20 DUP2 ADD SWAP1 POP PUSH2 0x3546 JUMP JUMPDEST DUP7 DUP4 LT ISZERO PUSH2 0x3588 JUMPI DUP5 DUP10 ADD MLOAD PUSH2 0x3584 PUSH1 0x1F DUP10 AND DUP3 PUSH2 0x3491 JUMP JUMPDEST DUP4 SSTORE POP JUMPDEST PUSH1 0x1 PUSH1 0x2 DUP9 MUL ADD DUP9 SSTORE POP POP POP JUMPDEST POP POP POP POP POP POP JUMP JUMPDEST PUSH1 0x0 PUSH1 0x40 DUP3 ADD SWAP1 POP PUSH2 0x35B2 PUSH1 0x0 DUP4 ADD DUP6 PUSH2 0x2583 JUMP JUMPDEST PUSH2 0x35BF PUSH1 0x20 DUP4 ADD DUP5 PUSH2 0x2583 JUMP JUMPDEST SWAP4 SWAP3 POP POP POP JUMP JUMPDEST PUSH32 0x4F776E61626C653A2063616C6C6572206973206E6F7420746865206F776E6572 PUSH1 0x0 DUP3 ADD MSTORE POP JUMP JUMPDEST PUSH1 0x0 PUSH2 0x35FC PUSH1 0x20 DUP4 PUSH2 0x24FE JUMP JUMPDEST SWAP2 POP PUSH2 0x3607 DUP3 PUSH2 0x35C6 JUMP JUMPDEST PUSH1 0x20 DUP3 ADD SWAP1 POP SWAP2 SWAP1 POP JUMP JUMPDEST PUSH1 0x0 PUSH1 0x20 DUP3 ADD SWAP1 POP DUP2 DUP2 SUB PUSH1 0x0 DUP4 ADD MSTORE PUSH2 0x362B DUP2 PUSH2 0x35EF JUMP JUMPDEST SWAP1 POP SWAP2 SWAP1 POP JUMP JUMPDEST PUSH32 0x4552433732313A20617070726F766520746F2063616C6C657200000000000000 PUSH1 0x0 DUP3 ADD MSTORE POP JUMP JUMPDEST PUSH1 0x0 PUSH2 0x3668 PUSH1 0x19 DUP4 PUSH2 0x24FE JUMP JUMPDEST SWAP2 POP PUSH2 0x3673 DUP3 PUSH2 0x3632 JUMP JUMPDEST PUSH1 0x20 DUP3 ADD SWAP1 POP SWAP2 SWAP1 POP JUMP JUMPDEST PUSH1 0x0 PUSH1 0x20 DUP3 ADD SWAP1 POP DUP2 DUP2 SUB PUSH1 0x0 DUP4 ADD MSTORE PUSH2 0x3697 DUP2 PUSH2 0x365B JUMP JUMPDEST SWAP1 POP SWAP2 SWAP1 POP JUMP JUMPDEST PUSH32 0x4552433732313A207472616E7366657220746F206E6F6E204552433732315265 PUSH1 0x0 DUP3 ADD MSTORE PUSH32 0x63656976657220696D706C656D656E7465720000000000000000000000000000 PUSH1 0x20 DUP3 ADD MSTORE POP JUMP JUMPDEST PUSH1 0x0 PUSH2 0x36FA PUSH1 0x32 DUP4 PUSH2 0x24FE JUMP JUMPDEST SWAP2 POP PUSH2 0x3705 DUP3 PUSH2 0x369E JUMP JUMPDEST PUSH1 0x40 DUP3 ADD SWAP1 POP SWAP2 SWAP1 POP JUMP JUMPDEST PUSH1 0x0 PUSH1 0x20 DUP3 ADD SWAP1 POP DUP2 DUP2 SUB PUSH1 0x0 DUP4 ADD MSTORE PUSH2 0x3729 DUP2 PUSH2 0x36ED JUMP JUMPDEST SWAP1 POP SWAP2 SWAP1 POP JUMP JUMPDEST PUSH1 0x0 DUP2 SWAP1 POP SWAP2 SWAP1 POP JUMP JUMPDEST PUSH2 0x374B PUSH2 0x3746 DUP3 PUSH2 0x2490 JUMP JUMPDEST PUSH2 0x3730 JUMP JUMPDEST DUP3 MSTORE POP POP JUMP JUMPDEST PUSH1 0x0 DUP2 PUSH1 0x60 SHL SWAP1 POP SWAP2 SWAP1 POP JUMP JUMPDEST PUSH1 0x0 PUSH2 0x3769 DUP3 PUSH2 0x3751 JUMP JUMPDEST SWAP1 POP SWAP2 SWAP1 POP JUMP JUMPDEST PUSH1 0x0 PUSH2 0x377B DUP3 PUSH2 0x375E JUMP JUMPDEST SWAP1 POP SWAP2 SWAP1 POP JUMP JUMPDEST PUSH2 0x3793 PUSH2 0x378E DUP3 PUSH2 0x264A JUMP JUMPDEST PUSH2 0x3770 JUMP JUMPDEST DUP3 MSTORE POP POP JUMP JUMPDEST PUSH1 0x0 PUSH2 0x37A5 DUP3 DUP6 PUSH2 0x373A JUMP JUMPDEST PUSH1 0x20 DUP3 ADD SWAP2 POP PUSH2 0x37B5 DUP3 DUP5 PUSH2 0x3782 JUMP JUMPDEST PUSH1 0x14 DUP3 ADD SWAP2 POP DUP2 SWAP1 POP SWAP4 SWAP3 POP POP POP JUMP JUMPDEST PUSH1 0x0 PUSH2 0x37D0 DUP3 PUSH2 0x2490 JUMP JUMPDEST SWAP2 POP PUSH2 0x37DB DUP4 PUSH2 0x2490 JUMP JUMPDEST SWAP3 POP DUP3 PUSH2 0x37EB JUMPI PUSH2 0x37EA PUSH2 0x30A9 JUMP JUMPDEST JUMPDEST DUP3 DUP3 MOD SWAP1 POP SWAP3 SWAP2 POP POP JUMP JUMPDEST PUSH1 0x0 DUP2 MLOAD SWAP1 POP SWAP2 SWAP1 POP JUMP JUMPDEST PUSH1 0x0 DUP3 DUP3 MSTORE PUSH1 0x20 DUP3 ADD SWAP1 POP SWAP3 SWAP2 POP POP JUMP JUMPDEST PUSH1 0x0 PUSH2 0x381D DUP3 PUSH2 0x37F6 JUMP JUMPDEST PUSH2 0x3827 DUP2 DUP6 PUSH2 0x3801 JUMP JUMPDEST SWAP4 POP PUSH2 0x3837 DUP2 DUP6 PUSH1 0x20 DUP7 ADD PUSH2 0x250F JUMP JUMPDEST PUSH2 0x3840 DUP2 PUSH2 0x2539 JUMP JUMPDEST DUP5 ADD SWAP2 POP POP SWAP3 SWAP2 POP POP JUMP JUMPDEST PUSH1 0x0 PUSH1 0x80 DUP3 ADD SWAP1 POP PUSH2 0x3860 PUSH1 0x0 DUP4 ADD DUP8 PUSH2 0x265C JUMP JUMPDEST PUSH2 0x386D PUSH1 0x20 DUP4 ADD DUP7 PUSH2 0x265C JUMP JUMPDEST PUSH2 0x387A PUSH1 0x40 DUP4 ADD DUP6 PUSH2 0x2583 JUMP JUMPDEST DUP2 DUP2 SUB PUSH1 0x60 DUP4 ADD MSTORE PUSH2 0x388C DUP2 DUP5 PUSH2 0x3812 JUMP JUMPDEST SWAP1 POP SWAP6 SWAP5 POP POP POP POP POP JUMP JUMPDEST PUSH1 0x0 DUP2 MLOAD SWAP1 POP PUSH2 0x38A6 DUP2 PUSH2 0x2401 JUMP JUMPDEST SWAP3 SWAP2 POP POP JUMP JUMPDEST PUSH1 0x0 PUSH1 0x20 DUP3 DUP5 SUB SLT ISZERO PUSH2 0x38C2 JUMPI PUSH2 0x38C1 PUSH2 0x23CB JUMP JUMPDEST JUMPDEST PUSH1 0x0 PUSH2 0x38D0 DUP5 DUP3 DUP6 ADD PUSH2 0x3897 JUMP JUMPDEST SWAP2 POP POP SWAP3 SWAP2 POP POP JUMP JUMPDEST PUSH32 0x4552433732313A206D696E7420746F20746865207A65726F2061646472657373 PUSH1 0x0 DUP3 ADD MSTORE POP JUMP JUMPDEST PUSH1 0x0 PUSH2 0x390F PUSH1 0x20 DUP4 PUSH2 0x24FE JUMP JUMPDEST SWAP2 POP PUSH2 0x391A DUP3 PUSH2 0x38D9 JUMP JUMPDEST PUSH1 0x20 DUP3 ADD SWAP1 POP SWAP2 SWAP1 POP JUMP JUMPDEST PUSH1 0x0 PUSH1 0x20 DUP3 ADD SWAP1 POP DUP2 DUP2 SUB PUSH1 0x0 DUP4 ADD MSTORE PUSH2 0x393E DUP2 PUSH2 0x3902 JUMP JUMPDEST SWAP1 POP SWAP2 SWAP1 POP JUMP JUMPDEST PUSH32 0x4552433732313A20746F6B656E20616C7265616479206D696E74656400000000 PUSH1 0x0 DUP3 ADD MSTORE POP JUMP JUMPDEST PUSH1 0x0 PUSH2 0x397B PUSH1 0x1C DUP4 PUSH2 0x24FE JUMP JUMPDEST SWAP2 POP PUSH2 0x3986 DUP3 PUSH2 0x3945 JUMP JUMPDEST PUSH1 0x20 DUP3 ADD SWAP1 POP SWAP2 SWAP1 POP JUMP JUMPDEST PUSH1 0x0 PUSH1 0x20 DUP3 ADD SWAP1 POP DUP2 DUP2 SUB PUSH1 0x0 DUP4 ADD MSTORE PUSH2 0x39AA DUP2 PUSH2 0x396E JUMP JUMPDEST SWAP1 POP SWAP2 SWAP1 POP JUMP INVALID LOG2 PUSH5 0x6970667358 0x22 SLT KECCAK256 NUMBER BASEFEE 0xD1 BYTE MLOAD CODESIZE 0xE6 SWAP12 0x2D DIV CALLDATACOPY 0x24 0xB9 BALANCE CREATE2 0xC1 0x2E 0xAF 0xD3 DUP4 CALLDATALOAD 0xE3 0x2D PUSH20 0x29132BC22C7B86C064736F6C63430008130033A2 PUSH5 0x6970667358 0x22 SLT KECCAK256 0xBC DUP3 EXTCODECOPY 0xE6 CREATE MULMOD RETURNDATASIZE 0xEE MOD 0xDE SSTORE 0xD6 SWAP6 0x27 0xE7 SWAP13 ADD 0xE8 RETURNDATASIZE 0xEA PUSH19 0xC23720C00612FA167E1CC64736F6C63430008 SGT STOP CALLER "
		},
		"gasEstimates": {
			"creation": {
				"codeDepositCost": "3621200",
				"executionCost": "4072",
				"totalCost": "3625272"
			},
			"external": {
				"beforeAll()": "infinite",
				"testTokenNameAndSymbol()": "infinite"
			}
		},
		"methodIdentifiers": {
			"beforeAll()": "7fea0d4b",
			"testTokenNameAndSymbol()": "218e00ff"
		}
	},
	"abi": [
		{
			"inputs": [],
			"name": "beforeAll",
			"outputs": [],
			"stateMutability": "nonpayable",
			"type": "function"
		},
		{
			"inputs": [],
			"name": "testTokenNameAndSymbol",
			"outputs": [],
			"stateMutability": "nonpayable",
			"type": "function"
		}
	]
}